:060000000A128A11D92F3B
:1006D800073400341A342C343E3483120313860151
:1006E800F0308316031386008316031789017F30C1
:1006F80083160313810508006E30F300892B0A1254
:100708008A1135260A128A11F3006E30730603190E
:100718008E2B8F2B832B73080800F500831203138D
:100728002908840083172A1C83130130F3002B083F
:100738000739013EA12B0310F30DFF3E031D9F2B2C
:100748007308FF3A800575080A128A117B250A1278
:100758008A11831203132908840083172A1C831320
:100768000130F3002B0CF400F40C740C0739013E33
:10077800BF2B0310F30DFF3E031DBD2B7308800430
:100788000630F4003030F300F30BC82BF40BC82B01
:100798000000831203132908840083172A1C83137B
:1007A8000130F3002B0CF400F40C740C0739013EF3
:1007B800DF2B0310F30DFF3E031DDD2B7308FF3AFB
:1007C8008005080023308400831203132E08831346
:1007D8008000840A2F088000840A30088000840A78
:1007E80031088000840A32088000831603178801C4
:1007F800890183160313870176308400831203135B
:1008080023088000840A24088000840A25088000C0
:10081800840A26088000840A270880000A128A11A0
:10082800CF240A128A110A128A1171230A128A1114
:100838000A128A1180230A128A1183120313A8004C
:1008480028080A128A113D240A128A1103308312D9
:100858000313A2000830A1007630A000A00B322CB0
:10086800A10B322CA20B322C00001C2C0A128A116C
:100878000028F500831203132908840083172A1C13
:1008880083130130F3002B080739013E4D2C031068
:10089800F30DFF3E031D4B2C730880047508F3000D
:1008A80004300310F30CFF3E031D552C73080F3959
:1008B8000A128A117B250A128A1183120313290846
:1008C800840083172A1C83130130F3002B0CF400D7
:1008D800F40C740C0739013E732C0310F30DFF3E22
:1008E800031D712C730880040D30F300F30B7A2C70
:1008F800831203132908840083172A1C83130130E9
:10090800F3002B0CF400F40C740C0739013E8E2C08
:100918000310F30DFF3E031D8C2C7308FF3A80056E
:1009280075080F390A128A117B250A128A11831257
:1009380003132908840083172A1C83130130F3004A
:100948002B0CF400F40C740C0739013EAD2C031089
:10095800F30DFF3E031DAB2C730880040D30F3002C
:10096800F30BB42C831203132908840083172A1C61
:1009780083130130F3002B0CF400F40C740C0739CA
:10098800013EC82C0310F30DFF3E031DC62C73084F
:10099800FF3A800508002930840076088313800018
:1009A800840A77088000840A78088000840A790815
:1009B8008000840A7A0880000030831203132A0614
:1009C800031DE82C05302906031DEB2CEC2CF02C1C
:1009D8008316031385010B2D00302A06031DF62C00
:1009E80006302906031DF92CFA2CFE2C8316031356
:1009F80086010B2D00302A06031D042D0730290619
:100A0800031D072D082D7A2D8316031387011A302D
:100A1800FC00F830FB00FB0B0F2DFC0B0F2D00002A
:100A280003300A128A1191230A128A110730FC0036
:100A38007D30FB00FB0B1E2DFC0B1E2D03300A1214
:100A48008A1191230A128A111530FC00C630FB0066
:100A5800FB0B2C2DFC0B2C2D000003300A128A11E5
:100A680091230A128A1102300A128A1191230A125A
:100A78008A1102300A128A1191230A128A11083047
:100A88000A128A1191230A128A1100300A128A1155
:100A980091230A128A1106300A128A1191230A1226
:100AA8008A110830FD007D157D08FB000430031015
:100AB800FB0CFF3E031D5B2D7B080F390A128A11C0
:100AC80091230A128A117D080F390A128A1191237B
:100AD8000A128A1100300A128A1191230A128A1105
:100AE80001300A128A1191230A128A110800F200B1
:100AF800721C7F2D802D952D8312031329088400E5
:100B080083172A1C83130130F0002C080739013E93
:100B18008F2D0310F00DFF3E031D8D2D70088004EE
:100B2800AA2D831203132908840083172A1C831310
:100B38000130F0002C080739013EA42D0310F00DF8
:100B4800FF3E031DA22D7008FF3A8005F21CAD2D53
:100B5800AE2DC42D2908840083172A1C8313013065
:100B6800F0002C0CF100F10C710C0739013EBE2D80
:100B78000310F00DFF3E031DBC2D70088004DA2D14
:100B88002908840083172A1C83130130F0002C0CD9
:100B9800F100F10C710C0739013ED42D0310F00D52
:100BA800FF3E031DD22D7008FF3A8005721DDD2D12
:100BB800DE2DF12D2908840083172A1C83130130A8
:100BC800F0002D080739013EEB2D0310F00DFF3E14
:100BD800031DE92D70088004042E2908840083175A
:100BE8002A1C83130130F0002D080739013EFE2D21
:100BF8000310F00DFF3E031DFC2D7008FF3A800521
:100C0800F21D072E082E1E2E2908840083172A1C81
:100C180083130130F0002D0CF100F10C710C073931
:100C2800013E182E0310F00DFF3E031D162E70080E
:100C38008004342E2908840083172A1C831301306A
:100C4800F0002D0CF100F10C710C0739013E2E2E2D
:100C58000310F00DFF3E031D2C2E7008FF3A80058F
:100C68000800831203130610861406158615061A43
:100C78003E2E3F2E542E0230F2000430F100BA30DE
:100C8800F000F00B452EF10B452EF20B452E00001F
:100C980083120313061E512E522E4C2E3130D82F9C
:100CA800861A572E582E6D2E0230F2000430F100AD
:100CB800BA30F000F00B5E2EF10B5E2EF20B5E2EBA
:100CC800000083120313861E6A2E6B2E652E3230A7
:100CD800D82F061B702E712E862E0230F20004309B
:100CE800F100BA30F000F00B772EF10B772EF20BF3
:100CF800772E000083120313061F832E842E7E2E68
:100D08003330D82F861B892E8A2E9F2E0230F20070
:100D18000430F100BA30F000F00B902EF10B902E59
:100D2800F20B902E000083120313861F9C2E9D2E1B
:100D3800972E4130D82F0614861006158615061AE8
:100D4800A62EA72EBC2E0230F2000430F100BA30D5
:100D5800F000F00BAD2EF10BAD2EF20BAD2E000016
:100D680083120313061EB92EBA2EB42E3430D82F90
:100D7800861ABF2EC02ED52E0230F2000430F100A4
:100D8800BA30F000F00BC62EF10BC62EF20BC62EB1
:100D9800000083120313861ED22ED32ECD2E35309B
:100DA800D82F061BD82ED92EEE2E0230F200043092
:100DB800F100BA30F000F00BDF2EF10BDF2EF20B52
:100DC800DF2E000083120313061FEB2EEC2EE62EF7
:100DD8003630D82F861BF12EF22E072F0230F20064
:100DE8000430F100BA30F000F00BF82EF10BF82EB9
:100DF800F20BF82E000083120313861F042F052F11
:100E0800FF2E4230D82F0614861406118615061AAE
:100E18000E2F0F2F242F0230F2000430F100BA30C9
:100E2800F000F00B152FF10B152FF20B152F00000A
:100E380083120313061E212F222F1C2F3730D82F81
:100E4800861A272F282F3D2F0230F2000430F10098
:100E5800BA30F000F00B2E2FF10B2E2FF20B2E2FA5
:100E6800000083120313861E3A2F3B2F352F38308C
:100E7800D82F061B402F412F562F0230F200043086
:100E8800F100BA30F000F00B472FF10B472FF20BAF
:100E9800472F000083120313061F532F542F4E2F82
:100EA8003930D82F861B592F5A2F6F2F0230F20056
:100EB8000430F100BA30F000F00B602FF10B602F16
:100EC800F20B602F000083120313861F6C2F6D2F07
:100ED800672F4330D82F0614861406158611061A74
:100EE800762F772F8C2F0230F2000430F100BA30C1
:100EF800F000F00B7D2FF10B7D2FF20B7D2F000002
:100F080083120313061E892F8A2F842F2A30D82F85
:100F1800861A8F2F902FA52F0230F2000430F1008F
:100F2800BA30F000F00B962FF10B962FF20B962F9C
:100F3800000083120313861EA22FA32F9D2F30308B
:100F4800D82F061BA82FA92FBE2F0230F20004307D
:100F5800F100BA30F000F00BAF2FF10BAF2FF20B0E
:100F6800AF2F000083120313061FBB2FBC2FB62F11
:100F78002330D82F861BC12FC22FD72F0230F20063
:100F88000430F100BA30F000F00BC82FF10BC82F75
:100F9800F20BC82F000083120313861FD42FD52FFE
:100FA800CF2F4430D82F6E3008000A128A116C23D4
:100FB8000A128A11AE000A128A116D230A128A11C6
:100FC800AF000A128A116E230A128A11B0000A129F
:100FD8008A116F230A128A11B1000A128A1170232A
:100FE8000A128A11B200A901AA01AB01AC01AD0134
:080FF80083010A128A11E62BA5
:04400E00F22FFF3F4F
:00000001FF
