:060000000A128A110C280F
:10000800FE00030EF0000A08F1000A128A15692D95
:100018000A128A110F28831603130A128A15442517
:100028000A128A11E1000A128A1545250A128A1154
:10003800E2000A128A1546250A128A11E3000A12FA
:100048008A1547250A128A11E4000A128A154825DA
:100058000A128A11E5008313A0308400C2300A1204
:100068008A1549250A128A11643084006D300A12F3
:100078008A1549250A128A11FB0183010A128A117D
:1000880045280A128A155B250A128A110A128A154E
:1000980051250A128A11D23084008316031361088D
:1000A80083138000840A62088000840A6308800041
:1000B800840A64088000840A65088000203084006F
:1000C80052088000840A53088000840A540880007B
:1000D800840A55088000840A560880000A128A118A
:1000E800F3230A128A118312031386187C287D28A9
:1000F8009D28343083120313E200F130E100E10B54
:100108008328E20B83288312031386188C288D28F2
:100118009D28013083160313A00702302002031C18
:10012800962897289828A0018312861C9C289D2829
:10013800982800300A128A1554270A128A110130A9
:100148000A128A1554270A128A11831603132008E3
:100158000A128A15EB250A128A11730883160313EB
:10016800E0007208DF002108031DBB28BC287B299A
:1001780008300A128A1554270A128A1100300A1206
:100188008A1554270A128A11831603132008031D9F
:10019800CE28CF28D9281D30F8008030F9000A125F
:1001A8008A15BB260A128A11E2282830F800803006
:1001B800F9000A128A15BB260A128A110C300A1293
:1001C8008A1554270A128A1100300A128A155427F0
:1001D8000A128A11003083120313A7000030A60008
:1001E8000330A500FF30A400831603135F08F20054
:1001F8006008F300F401F5010030F9000030F80060
:10020800C330F7005030F6000A128A11B3270A12D9
:100218008A11750883120313AB007408AA007308C7
:10022800A9007208A8000A128A1140250A128A1128
:1002380083120313250883160313DE0083120313A6
:10024800240883160313DD001030F2002730F30072
:100258005E08F5005D08F4000A128A1579260A126C
:100268008A11730883160313D8007208D700103058
:10027800F2002730F3005E08F5005D08F4000A126A
:100288008A1541260A128A11730883160313DA00A5
:100298007208D900C23083120313CE004330CF0056
:1002A80083160313580883120313D100831603130C
:1002B800570883120313D000831603135A088312B6
:1002C8000313D30083160313590883120313D200B0
:1002D8000A128A15A3250A128A11C230F8000030C2
:1002E800F9000A128A15BB260A128A11542A210318
:1002F800031D7F298029042A08300A128A155427E9
:100308000A128A1100300A128A1554270A128A1111
:10031800831603132008031D922993299D29013070
:10032800F8008030F9000A128A15BB260A128A11D1
:10033800A6290F30F8008030F9000A128A15BB266A
:100348000A128A11003083120313A7000030A60096
:100358000330A500FF30A400831603135F08F200E2
:100368006008F300F401F5010030F9000030F800EE
:100378000030F7006430F6000A128A11B3270A1217
:100388008A11750883120313AB007408AA00730856
:10039800A9007208A8000A128A11EB260A128A110B
:1003A80083120313250883160313DC008312031337
:1003B800240883160313DB00C23083120313CE0014
:1003C8004B30CF00831603135C0883120313D1004C
:1003D800831603135B0883120313D0000A128A15CD
:1003E800A3250A128A110C300A128A1554270A12F8
:1003F8008A1100300A128A1554270A128A117129A3
:1004080002302106031D092A0A2A542A08300A1232
:100418008A1554270A128A1100300A128A1554279D
:100428000A128A11831603132008031D1C2A1D2A89
:10043800272A3330F8008030F9000A128A15BB26C3
:100448000A128A11302A3B30F8008030F9000A126B
:100458008A15BB260A128A11C23083120313CE00F2
:100468005030CF0083160313600883120313D100A2
:10047800831603135F0883120313D0000A128A1528
:10048800A3250A128A110C300A128A1554270A1257
:100498008A1100300A128A1554270A128A11712902
:1004A800033083120313E3000830E2007630E100E2
:1004B800E10B5C2AE20B5C2AE30B5C2A000077283C
:1004C8000A128A110C28831203133F08840083132D
:1004D800000884000A128A115B270A128A11253A39
:1004E800031D772A782A1F2B3F08840001308007D4
:1004F800E901EA010030FB00FF30EB00FF30EC00BF
:10050800C7019C2AFB143F088400013080079C2AFD
:100518000130C7009C2A3F088400000884000A12A2
:100528008A115B270A128A11303A0319862A8C2A03
:1005380047080319A02AA12A8F2A3F08F800400873
:10054800F9000A128A15A9270A128A117908831252
:100558000313EA007808E900EA1FB32AB42ABA2A82
:100568007B14E909EA09E90A0319EA0A3F08840041
:1005780083130008C800480884000A128A115B2700
:100588000A128A11753A031DCA2ACB2AF72A40088B
:1005980084000008C1000230800741088400000878
:1005A800C300840A0008C4003F0884004808013ECC
:1005B8008000EC2A3D08B4003E08B5004408B700A6
:1005C8004308B6000A128A116D260A128A11382BBE
:1005D800480884000A128A115B270A128A11753AA0
:1005E8000319DE2AF72A3F088400000884000A124B
:1005F8008A115B270A128A11253A031D042B052B41
:10060800172B3F088400013080072530F2000030A6
:10061800F3003D08F4003E08F5000A128A11A024F0
:100628000A128A11382B831203133F088400013001
:1006380083138007382B3F088400000884000A12BF
:100648008A115B270A128A11C100C2014108F2000F
:100658004208F3003D08F4003E08F5000A128A112A
:10066800A0240A128A11172B0800F400741C3D2BD1
:100678003E2B532B83120313640884008317651CD5
:1006880083130130F20067080739013E4D2B031030
:10069800F20DFF3E031D4B2B72088004682B83125A
:1006A8000313640884008317651C83130130F20068
:1006B80067080739013E622B0310F20DFF3E031D48
:1006C800602B7208FF3A8005F41C6B2B6C2B822B75
:1006D800640884008317651C83130130F200670CDB
:1006E800F300F30C730C0739013E7C2B0310F20D59
:1006F800FF3E031D7A2B72088004982B640884003F
:100708008317651C83130130F200670CF300F30CA8
:10071800730C0739013E922B0310F20DFF3E031DA7
:10072800902B7208FF3A8005741D9B2B9C2BAF2BD6
:10073800640884008317651C83130130F20068087D
:100748000739013EA92B0310F20DFF3E031DA72B0D
:1007580072088004C22B640884008317651C831305
:100768000130F20068080739013EBC2B0310F20D76
:10077800FF3E031DBA2B7208FF3A8005F41DC52BF6
:10078800C62BDC2B640884008317651C8313013097
:10079800F200680CF300F30C730C0739013ED62BFA
:1007A8000310F20DFF3E031DD42B72088004F22BB8
:1007B800640884008317651C83130130F200680CF9
:1007C800F300F30C730C0739013EEC2B0310F20D08
:1007D800FF3E031DEA2B7208FF3A800508006430CB
:1007E800840083120313200883138000840A2108DD
:1007F8008000840A22088000840A23088000840A72
:100808002408800000306506031D0C2C05306406A2
:10081800031D0F2C102C142C8316031385012F2C69
:1008280000306506031D1A2C06306406031D1D2CB6
:100838001E2C222C8316031386012F2C00306506EC
:10084800031D282C07306406031D2B2C2C2C9F2CF1
:100858008316031387013430F900F130F800F80BE0
:10086800332CF90B332C382C03300A128A155427F1
:100878000A128A110D30F900FB30F800F80B422CEF
:10088800F90B422C472C03300A128A1554270A12F6
:100898008A112A30F9008D30F800F80B512CF90B29
:1008A800512C562C03300A128A1554270A128A1121
:1008B80002300A128A1554270A128A1102300A12C3
:1008C8008A1554270A128A1108300A128A155427E1
:1008D8000A128A1100300A128A1554270A128A113C
:1008E80006300A128A1554270A128A110830FA00AB
:1008F8007A157A08F80004300310F80CFF3E031D3F
:10090800802C78080F390A128A1554270A128A117E
:100918007A080F390A128A1554270A128A110030E8
:100928000A128A1554270A128A1101300A128A15E6
:1009380054270A128A110800740875040319A52C93
:10094800A62CAC2C74087504031DAB2CAC2CB32C52
:1009580072080A128A11FF270A128A113F2D740899
:10096800093E83120313A00075080318013E003ED8
:10097800A100200884008317211C83130008A2000B
:10098800840A0008A300220823040319CC2CCD2CC8
:10099800FF2C7408093EA00075080318013E003EAC
:1009A800A100200884008317211C83130008A200DB
:1009B800840A0008A3007408023EA40075080318FE
:1009C800013E003EA500240884008317251C8313DC
:1009D8000008A600840A0008A7002708803AA80093
:1009E8002308803A2802031DFB2C2208260203183C
:1009F800FE2CFF2C3F2D740884008317751C83136D
:100A0800000883120313A000840A0008A1007408D8
:100A1800023EA20075080318013E003EA30022080A
:100A280084008317231C831300082007A5002108CE
:100A3800A4000318A40A801F222DA4038312031301
:100A48002408A600250884008317261C831372082F
:100A580080007408023EA00075080318013E003E9D
:100A6800A100200884008317211C8313013080070C
:100A7800840A0318800A080083120313AE01A71F13
:100A8800462D472D542DA409A509A609A709A40A8E
:100A98000319A50A0319A60A0319A70A0130AE000B
:100AA800AB1F572D582D652DA809A909AA09AB090F
:100AB800A80A0319A90A0319AA0A0319AB0A0130DB
:100AC800AE060030B2000030B1000030B000003097
:100AD800AF0027082604250424040319742D752D56
:100AE800C02D0130AD00832D0130AC000310A40DE2
:100AF800A50DA60DA70DAC0B7A2D0130AD07A71FCC
:100B0800862D872D782D0130AC000310AF0DB00D68
:100B1800B10DB20DAC0B892D27082B02031D9E2D9C
:100B280026082A02031D9E2D25082902031D9E2D35
:100B380024082802031CA12DA22DB12D2408A802E7
:100B48002508031C250FA9022608031C260FAA0244
:100B58002708031C270FAB022F1401300310A70C22
:100B6800A60CA50CA40CFF3E031DB22D0130AD024E
:100B7800031DBF2DC02D872D2E080319C42DC52D8B
:100B8800D02DAF09B009B109B209AF0A0319B00AEB
:100B98000319B10A0319B20A3208A7003108A600DE
:100BA8003008A5002F08A4000800F70083120313DB
:100BB800640884008317651C83130130F5006608F8
:100BC8000739013EE92D0310F50DFF3E031DE72D02
:100BD800750880047708F50004300310F50CFF3E13
:100BE800031DF12D75080F390A128A1139230A12CB
:100BF8008A1183120313640884008317651C831306
:100C08000130F500660CF600F60C760C0739013E4B
:100C18000F2E0310F50DFF3E031D0D2E75088004E1
:100C28001A30F500F50B162E000083120313640822
:100C380084008317651C83130130F500660CF600E9
:100C4800F60C760C0739013E2B2E0310F50DFF3EEE
:100C5800031D292E7508FF3A800577080F390A12F7
:100C68008A1139230A128A11831203136408840033
:100C78008317651C83130130F500660CF600F60C2B
:100C8800760C0739013E4A2E0310F50DFF3E031D71
:100C9800482E750880041A30F500F50B512E000017
:100CA80083120313640884008317651C83130130BF
:100CB800F500660CF600F60C760C0739013E662E38
:100CC8000310F50DFF3E031D642E7508FF3A8005DD
:100CD8000800013083120313B8006A08BA006908D3
:100CE800B9001F30BB000030BC0083160313C101DC
:100CF800B52EFF3083120313BB070318BC0AFF305D
:100D0800BC073B08A23E84000A30F2000030F30022
:100D18003708F5003608F4000A128A1541260A1227
:100D28008A117208303E8313800083120313B801BE
:100D3800FF30B9070318BA0AFF30BA070A30F200C1
:100D48000030F3003708F5003608F4000A128A1557
:100D580079260A128A11730883120313B7007208DE
:100D6800B60083123B083C040319BB2EBC2ED82EB8
:100D780036083704031DC12EC22E7D2E3808031DE8
:100D8800C62EC72E7D2E3A08803AFF0080307F029B
:100D9800031DD02E01303902031CD32ED42ED82E99
:100DA800FB18D72ED82E7D2E831203133408AC00DF
:100DB8003508AD003B08A23EAE003A08B00039083D
:100DC800AF000A128A1501270A128A11080000309A
:100DD80083120313B0000030AF000030AE000030C3
:100DE800AD0027082604250424040319FC2EFD2E33
:100DF800482F0130B1000B2F0130AC000310A40DB7
:100E0800A50DA60DA70DAC0B022F0130B107A71F2A
:100E18000E2F0F2F002F0130AC000310AD0DAE0DBB
:100E2800AF0DB00DAC0B112F27082B02031D262F79
:100E380026082A02031D262F25082902031D262F0E
:100E480024082802031C292F2A2F392F2408A80236
:100E58002508031C250FA9022608031C260FAA0231
:100E68002708031C270FAB022D1401300310A70C11
:100E7800A60CA50CA40CFF3E031D3A2F0130B102AD
:100E8800031D472F482F0F2F3008A7002F08A60053
:100E98002E08A5002D08A4000800FF1B5B2F831354
:100EA8007F1883170008840A0319FF0A080007300F
:100EB8008A000408840A8207003450346F3472347C
:100EC800633465346E34743461346A346534203480
:100ED80056343134003450346F34723463346534EA
:100EE8006E34743461346A346534203456343234A0
:100EF800003456346F346C34743461346A34653475
:100F0800203431343A34003456346F346C34743409
:100F180061346A346534203432343A34003441342C
:100F2800443443342034563431343A340034413470
:100F3800443443342034563432343A34003425347B
:100F480075342E3425343034343475340034253433
:100F58007534253425340034253475340034003094
:100F680083120313A3000030A2000030A100003058
:100F7800A000721CC02FC12FDA2F7608831203132A
:100F8800A007770803110318013E0319CC2FA10706
:100F9800780803110318013E0319D32FA207790813
:100FA80003110318013E0319DA2FA3070130FA00D1
:100FB8000310F60DF70DF80DF90DFA0BDC2F0130C3
:100FC8000310F50CF40CF30CF20CFF3E031DE42F98
:100FD8007508740473047204031DF32FF42FBD2FD6
:100FE800831203132308F5002208F4002108F300F4
:080FF8002008F20008000800C7
:101A8800073400341A342C343E3464008001840A4C
:101A980004060319003404064A2D8316031306149A
:101AA8008614811301138B100B168B170800033053
:101AB80083160317880089010130831203139F00DE
:101AC8008030831603139F0008008B1C6C2D6D2D2E
:101AD800792D013083160313A10703302102031C5B
:101AE800762D772D782DA1018B1071088A00700E44
:101AF8008300FE0E7E0E0900831203134B08CD00EF
:101B0800922D4908BD004A08BE004D30BF004C0860
:101B1800C0000A128A1167220A128A158312031357
:101B28004D0884000A128A115B270A128A15003AA6
:101B3800031D9F2DA02D852DC901CA010800503015
:101B480083120313D5004E08D6000030D700D80101
:101B5800D901DF01E0015630C9000030CA004F0842
:101B6800CB005530CC000A128A1580250A128A1536
:101B78008312031358084E07D400540884008313B3
:101B880080010800F601F701721CCB2DCC2DD22D57
:101B98007408F6070318F70A7508F70701300310E9
:101BA800F40DF50DFF3E031DD32D01300310F30C8A
:101BB800F20CFF3E031DDA2D72087304031DE52D98
:101BC800E62DC82D7708F3007608F2000800F60025
:101BD8000330F400F40BEE2D8330831203139F05BA
:101BE8007608F40001300310F40DFF3E031DF72DB5
:101BF8000310740D9F040630F5003030F400F40B28
:101C0800032EF50B032E0000831203139F149F1855
:101C18000E2E0F2E0B2E1E08F300831603131E081C
:101C2800F200080083120313AA01AB01332E29081E
:101C3800F900FA017908F2007A08F3007708F4004D
:101C48007808F5000A128A11A0240A128A150130B0
:101C580083120313AA070318AB0A0030AB072A083C
:101C68007607F9007908840083130008A900290879
:101C7800031D3F2E402E1B2E080072087304031903
:101C8800462E472E742E0130F600532E01300310D5
:101C9800F20DF30DFF3E031D4B2E0130F607F31F27
:101CA800562E572E4A2E73087502031D5D2E720894
:101CB8007402031C602E612E672E7208F4027308EA
:101CC800031CF503F50201300310F30CF20CFF3E80
:101CD800031D682E0130F602031D732E742E572E35
:101CE8007508F3007408F2000800F601F70172089D
:101CF80073040319802E812EB62E0130F8008D2E24
:101D080001300310F20DF30DFF3E031D852E013047
:101D1800F807F31F902E912E842E01300310F60D34
:101D2800F70DFF3E031D922E73087502031D9E2EAC
:101D380072087402031CA12EA22EA92E7208F402A6
:101D48007308031CF503F502761401300310F30C35
:101D5800F20CFF3E031DAA2E0130F802031DB52E1A
:101D6800B62E912E7708F3007608F2000800831249
:101D78000313A301A401E42E23087807A10079081E
:101D8800A0000318A00AA31FCA2EA00383120313DE
:101D98002008A2002208FF00210884000A128A11E4
:101DA80051270A128A150A128A11D9250A128A1588
:101DB800013083120313A3070318A40A0030A407F1
:101DC80023087807A1007908A0000318A00AA31F18
:101DD800EE2EA003831203132008A2002208FF009E
:101DE800210884000A128A1151270A128A15003A1A
:101DF800031DFF2E002FC02E08007B1C042F052F6B
:101E0800122F831203132E08F6002C08F7002D0852
:101E1800F8000A128A1516260A128A158312031365
:101E2800B01F172F182F1A2FAF01B001B201B3013D
:101E3800342F2030F2000030F300831203132C08F3
:101E4800F4002D08F5000A128A11A0240A128A1536
:101E5800013083120313B2070318B30A0030B30723
:101E68003308803AB1003008803A3102031D3E2F12
:101E78002F083202031C412F422F1D2F7B18452F9C
:101E8800462F532F831203132E08F6002C08F70051
:101E98002D08F8000A128A1516260A128A15080053
:101EA800F70083120313640884008317651C8313E7
:101EB8000130F50066080739013E642F0310F50D5F
:101EC800FF3E031D622F7508FF3A800577080A1246
:101ED8008A1139230A128A158312031364088400AD
:101EE8008317651C83130130F500660CF600F60CA9
:101EF800760C0739013E822F0310F50DFF3E031DB6
:101F0800802F750880040B30F6006230F500F50B61
:101F18008B2FF60B8B2F00008312031364088400A9
:101F28008317651C83130130F500660CF600F60C68
:101F3800760C0739013EA22F0310F50DFF3E031D55
:101F4800A02F7508FF3A8005080083120313A1012A
:101F5800A201780884008313000884000A128A11F9
:101F68005B270A128A152A3A031DBB2FBC2FEA2FBA
:101F78007808840001308007790884000008FA0096
:101F8800023080077A0884000008A100840A00084B
:101F9800A200FB2F2208F3002108F2000A30F40007
:101FA8000030F5000A128A15C6250A128A1583120E
:101FB800031320087207A1000030031801307307CB
:101FC800A200780884000130831380077808840011
:101FD800000884000A128A115B270A128A15D03E6B
:101FE800A0000A302002031CFA2FFB2FCE2F220854
:081FF800F9002108F8000800BF
:04400E00F12FFF3F50
:00000001FF
