:060000000A128A11FC2F18
:100E42008316031307117C3092000C3083120313B4
:100E520097000530920008000130831603178800BE
:100E620089018316031305140130831203139F00B3
:100E72008030831603139F000800F300C3308312EF
:100E820003139F057308F20001300310F20DFF3EB9
:100E9200031D462F0310720D9F043130F200F20B36
:100EA200502F532F831203139F149F18592F5A2F19
:100EB200562F1E08F100831603131E08F0000800C7
:100EC2007108F3007008F2000310F30CF20C031027
:100ED200F30CF20C72088312031395007108F300ED
:100EE2007008F2000310F30CF20C72080139F400DE
:100EF200F40EF40D17087406DF39740697007008B3
:100F02000139F200F20E17087206EF3972069700E5
:100F120008000A128A112D270A128A110A128A114E
:100F220021270A128A1100300A128A113E270A1258
:100F32008A117108F8007008F7001430F600793051
:100F4200F500F50BA22FF60BA22FA72F7808F100C0
:100F52007708F0000A128A11C1270A128A11710851
:100F6200FA007008F9007A08F1007908F0000A1214
:100F72008A1161270A128A11942F0A128A110028F3
:100F820000307102CD30031970020318C92FCA2F25
:100F9200CD2FF001F101FB2F013071029A300319BC
:100FA20070020318D52FD62FDB2F7D30F0000030D2
:100FB200F100FB2F0230710267300319700203182F
:100FC200E32FE42FE92FFA30F0000030F100FB2F7D
:100FD200033071023330031970020318F12FF22F1C
:100FE200F72F7730F0000130F100FB2FF330F000E3
:0E0FF2000130F100080083010A128A118A2FD3
:04400E00F12FFF3F50
:00000001FF
