:060000000A128A110E280D
:10000800FE00030EF1000408F2000A08F3000A12C9
:100018008A1182290A128A1111280A128A1179234F
:100028000A128A11C7000A128A117A230A128A113F
:10003800C8000A128A117B230A128A11C9000A12FF
:100048008A117C230A128A11CA000A128A117D2396
:100058000A128A11F8000A128A117E230A128A11DA
:10006800F90083133730840047300A128A1171234C
:100078000A128A11F501F601F70183010A128A11A1
:10008800EC28831203134608031D4B284C284D28DF
:10009800EB284908803A7F3E031C53285428BA2885
:1000A80006307806031D59285A28BA287908A1006D
:1000B800A201A11BA2032208803AA30080302302D8
:1000C800031D682848082102031C6B286C28B428E3
:1000D800790883120313A100A201A11BA2034808F7
:1000E800023EA300003003180130A4002408803A1F
:1000F800A5002208803A2502031D8428210823022E
:10010800031C87288828B428FF3083120313C900EA
:100118007908A100A201A11BA20348082106220414
:10012800031D972898289B28FF30CA00BA28790809
:10013800A100A201A11BA2034808023EA3000030AF
:1001480003180130A40022082406031DAD28210845
:100158002306031DB028B128BA280130CA00BA28DE
:100168000A128A1104230A128A11EB284A08F9078D
:100178004908F807F91FC128C228C528F901013024
:10018800CA007908803A783E031CCB28CC28D028AE
:100198000730F900FF30CA00F81FD328D428EB280D
:1001A800AA300A128A1167230A128A1179080A12D8
:1001B8008A1167230A128A11831203134A080A1242
:1001C8008A1167230A128A1183120313C6010800D1
:1001D800FF308316031385008601880183120313F9
:1001E80085018601FF3088000A128A1159230A12F4
:1001F8008A110A128A1149230A128A110A128A11CB
:1002080022230A128A11013083120313C6000A122C
:100218008A1138230A128A110A128A11EC210A1249
:100228008A1183120313B501B6018312031344081C
:1002380003191F2920295F293F084102B3004008FC
:10024800031C400A4202B400013034022C30031966
:100258003302031C3029312949294208C0004108CA
:10026800BF004708031939293B2901303C290030D0
:10027800C7000130C3070A128A1138230A128A11EB
:100288000A128A11EC210A128A110630831203130A
:100298004302031C502951291929C4010130C70000
:1002A8000A128A1138230A128A110A128A11EC21B9
:1002B8000A128A11192935084102B3003608031CAD
:1002C800360A4202B400003034027830031933028F
:1002D800031C6F29702919294208B6004108B50086
:1002E8000A128A1149220A128A110A128A11452011
:1002F8000A128A1154290A128A110E280B1D8529FF
:100308008629AE290B11C23083120313810086019E
:10031800FF3088000130F000770A94290310F00DAF
:10032800FF3E031D9229700886007708373E840037
:100338008313000988000130F70708307702031C8F
:10034800A629A729A829F7010130C1070318C20A5D
:100358000030C207831203138C1EB329B429E32982
:100368001A08F400D229AA307406031DBC29BD2935
:10037800DD290130F600DD297408F5000230F600A9
:10038800DD297408C5007508F900F8014508CA0098
:100398000130C9000130C600F601DD297608003AAF
:1003A8000319B729013A0319C029033A0319C529C2
:1003B800DD29981CE029E129E32918121816730889
:1003C8008A0072088400710E8300FE0E7E0E0900FA
:1003D800F91FEF29F029F129F9017908803A783EC7
:1003E800031CF729F829FA290730F900F81FFD2915
:1003F800FE29FF29F8017808803A783E031C052A6F
:10040800062A082A0730F80083120313470803193D
:100418000E2A0F2A232A46080319132A142A232AE4
:100428007808373E84000130A000790A1D2A03109D
:10043800A00DFF3E031D1B2A2008831380040130F2
:10044800A000480A292A0310A00DFF3E031D272AF1
:100458002008BE040130A0004808013E013E362AAB
:100468000310A00DFF3E031D342A2008BE040130EE
:10047800A0004808023E013E432A0310A00DFF3E9B
:10048800031D412A2008BE04080000300A128A1100
:10049800DD220A128A11831203132108B2002008F0
:1004A800B1000030320232300319310203185D2ADC
:1004B8005E2A602AC801942A03303202CB3003191D
:1004C8003102031C682A692A6C2A0530C800942A5C
:1004D8003108A0003208A100A201A3010030A70042
:1004E8000030A6000030A5000630A4000A128A11C8
:1004F80095220A128A11831203132008AD002108DD
:10050800AE002208AF002308B0000A300310B00C78
:10051800AF0CAE0CAD0CFF3E031D8A2A2D08C80097
:100528000800003083120313AC000030AB00003029
:10053800AA000030A900201CA22AA32ABA2A24084B
:10054800A907250803110318013E0319AC2AAA07B5
:10055800260803110318013E0319B32AAB0727081D
:1005680003110318013E0319BA2AAC070130A80089
:100578000310A40DA50DA60DA70DA80BBC2A0130CC
:100588000310A30CA20CA10CA00CFF3E031DC42A4F
:100598002308220421042004031DD32AD42A9F2AD5
:1005A8002C08A3002B08A2002A08A1002908A000F3
:1005B800080083120313A300C5309F052308A20077
:1005C80002300310A20DFF3E031DE52A0310220D81
:1005D8009F040C3083120313A200A20BF12A00001F
:1005E800831203139F149F18FA2AFB2AF72A1E085E
:1005F800A100831603131E0883120313A00008002A
:100608000430F9000430F800013083120313CA00E3
:10061800FF30C9000130C400C3010130C7004208DF
:10062800C0004108BF000A128A1138230A128A1131
:100638000A128A11EC210A128A1108008316031380
:10064800071387170C309900181518128312031313
:1006580098178316031398168312031318168C120F
:10066800831603138C16080083120313A0012008B5
:10067800373E8400831380010130A0070830200230
:10068800031C472B482B3B2B0800831603138112AE
:100698008111011581100110C230831203138100EA
:1006A8000B118B168B170B170800013083160317D5
:1006B800880089010130831203139F00803083165C
:1006C80003139F00080083120313A0000C1E6D2B58
:1006D8006E2B6A2B20089900080064008001840AA8
:1006E8000406031900340406722B01340234FF3463
:0606F80001340434043457
:04400E00F22FFF3F4F
:00000001FF
