:060000000A128A110C280F
:10000800FE00030EF0000A08F1000A128A11DD2C26
:100018000A128A110F2883133530FD000430FE00C0
:10002800F430FF00203084000A128A110D250A12CC
:100038008A11CA01CB01CC01CD01CE01CF01D0017B
:10004800D101FA01FB0183010A128A112B288312BC
:100058000313C601C70141308400200883138000C0
:10006800840A21088000840A22088000840A230860
:100078008000840A2408800035308400410880000C
:10008800840A42088000840A43088000840A4408DD
:100098008000840A450880000A128A11A4220A12E4
:1000A8008A1100300A128A1140240A128A1101307A
:1000B8000A128A1140240A128A110A128A111C256E
:1000C8000A128A110A128A112A250A128A112D3057
:1000D800F80000300A128A11E9230A128A11253021
:1000E800F80001300A128A11E9230A128A11003035
:1000F8000A128A1195240A128A11730883120313AB
:10010800C9007208C80001300A128A1195240A121F
:100118008A11730883120313C7007208C6000230DD
:100128004902273003194802031C9B289C28D4281D
:100138004808DA3EBB0049080318013EFD3EBC00F2
:100148000310BC0CBB0C2C30BD000130BE003B08BA
:100158003D02FA003C08031C3C0A3E02FB0000304A
:100168007B02323003197A020318BB28BC28C02846
:100178003230FA000030FB000F305006031DC5284E
:10018800C628C828D001CA280130D0077B08F30048
:100198007A08F2000A128A11C0240A128A11102958
:1001A80001304902D630031948020318DC28DD283B
:1001B8001029D630BB000130BC0048083B02BD0006
:1001C8004908031C490A3C02BE000310BE0CBD0CC2
:1001D8002C30BF000130C0003D083F02FA003E0845
:1001E800031C3E0A4002FB0000307B023230031938
:1001F8007A0203180029012905293230FA00003053
:10020800FB005008031D09290A290D290F30D000C9
:10021800CA280130D002CA280230831203134702C9
:10022800BD3003194602031C1A291B2934294F081B
:10023800031D1F29202923290130CF002429CF019C
:10024800023083120313BD008630BC009830BB0017
:10025800BB0B2C29BC0B2C29BD0B2C2900004329D6
:10026800013047022C300319460203183C293D2966
:1002780043294F03031D41294229202923290030FE
:100288000A128A1140240A128A1101300A128A11AC
:1002980040240A128A11831203134F08031D55299B
:1002A800562971295008803EBB0004300310BB0C4E
:1002B800FF3E031D5A293B080F390A128A114024B0
:1002C8000A128A11831203135008803E0F390A124A
:1002D8008A1140240A128A11D2294F03031D752955
:1002E800762991295008C03EBB0004300310BB0C8E
:1002F800FF3E031D7A293B080F390A128A11402450
:100308000A128A11831203135008C03E0F390A12C9
:100318008A1140240A128A11D22902304F06031D7D
:1003280096299729B2295008943EBB00043003103F
:10033800BB0CFF3E031D9B293B080F390A128A118B
:1003480040240A128A11831203135008943E0F396D
:100358000A128A1140240A128A11D22903304F0640
:10036800031DB729B829D2295008D43EBB00043050
:100378000310BB0CFF3E031DBC293B080F390A12B2
:100388008A1140240A128A11831203135008D43E9A
:100398000F390A128A1140240A128A118312031390
:1003A8005108031DD829D929E02900300A128A11D9
:1003B80055230A128A117B2801300A128A11552303
:1003C8000A128A117B280A128A110C28F400741C5C
:1003D800EE29EF29042A831203134A08840083179D
:1003E8004B1C83130130F2004D080739013EFE29EA
:1003F8000310F20DFF3E031DFC2972088004192A20
:10040800831203134A08840083174B1C831301309B
:10041800F2004D080739013E132A0310F20DFF3E82
:10042800031D112A7208FF3A8005F41C1C2A1D2A94
:10043800332A4A08840083174B1C83130130F200C7
:100448004D0CF300F30C730C0739013E2D2A0310F1
:10045800F20DFF3E031D2B2A72088004492A4A0820
:10046800840083174B1C83130130F2004D0CF300FA
:10047800F30C730C0739013E432A0310F20DFF3EBB
:10048800031D412A7208FF3A8005741D4C2A4D2A23
:10049800602A4A08840083174B1C83130130F2003A
:1004A8004E080739013E5A2A0310F20DFF3E031D7C
:1004B800582A72088004732A4A08840083174B1C40
:1004C80083130130F2004E080739013E6D2A0310EC
:1004D800F20DFF3E031D6B2A7208FF3A8005F41DDA
:1004E800762A772A8D2A4A08840083174B1C83139F
:1004F8000130F2004E0CF300F30C730C0739013E87
:10050800872A0310F20DFF3E031D852A7208800416
:10051800A32A4A08840083174B1C83130130F20076
:100528004E0CF300F30C730C0739013E9D2A03109F
:10053800F20DFF3E031D9B2A7208FF3A8005080052
:100548004A30840083120313350883138000840A19
:1005580036088000840A37088000840A380880003A
:10056800840A3908800000304B06031DBD2A053077
:100578004A06031DC02AC12AC52A8316031385010A
:10058800E02A00304B06031DCB2A06304A06031D1D
:10059800CE2ACF2AD32A831603138601E02A0030F5
:1005A8004B06031DD92A07304A06031DDC2ADD2A1B
:1005B800542B8316031387013430F900F130F80007
:1005C800F80BE42AF90BE42AE92A03300A128A1103
:1005D80040240A128A110D30F900FB30F800F80B9C
:1005E800F32AF90BF32AF82A03300A128A11402455
:1005F8000A128A112A30F9008D30F800F80B022B04
:10060800F90B022B072B03300A128A1140240A1215
:100618008A1102300A128A1140240A128A11023001
:100628000A128A1140240A128A1108300A128A1101
:1006380040240A128A1100300A128A1140240A1230
:100648008A1106300A128A1140240A128A110830C7
:1006580083120313BA003A153A08F800043003105D
:10066800F80CFF3E031D332B78080F390A128A1144
:1006780040240A128A11831203133A080F390A1206
:100688008A1140240A128A1100300A128A11402461
:100698000A128A1101300A128A1140240A128A1198
:1006A8000800F700831203134A08840083174B1CC1
:1006B80083130130F5004C080739013E652B031000
:1006C800F50DFF3E031D632B750880047708F500C0
:1006D80004300310F50CFF3E031D6D2B75080F3910
:1006E8000A128A11EA210A128A11831203134A088C
:1006F800840083174B1C83130130F5004C0CF60063
:10070800F60C760C0739013E8B2B0310F50DFF3ED6
:10071800031D892B750880041A30F500F50B922B00
:100728000000831203134A08840083174B1C8313A9
:100738000130F5004C0CF600F60C760C0739013E3A
:10074800A72B0310F50DFF3E031DA52B7508FF3AD7
:10075800800577080F390A128A11EA210A128A11CC
:10076800831203134A08840083174B1C8313013038
:10077800F5004C0CF600F60C760C0739013EC62B3A
:100788000310F50DFF3E031DC42B750880041A30B5
:10079800F500F50BCD2B0000831203134A088400E3
:1007A80083174B1C83130130F5004C0CF600F60C34
:1007B800760C0739013EE22B0310F50DFF3E031DB1
:1007C800E02B7508FF3A8005080083120313B70071
:1007D8000730B7053708B50002300310B50DFF3EE6
:1007E800031DF12B0310350D403EB60004300310F5
:1007F800B60CFF3E031DFB2B36080F390A128A116F
:1008080040240A128A11831203133708B5000230F4
:100818000310B50DFF3E031D0C2C0310350D403E93
:100828000F390A128A1140240A128A1183120313FB
:10083800B80138087807B500350884008313000824
:100848000A128A1155230A128A11013083120313DE
:10085800B80708303802031C322C332C1D2C083002
:100868000A128A1140240A128A1100300A128A11C7
:1008780040240A128A110800F700831203134A0859
:10088800840083174B1C83130130F5004C0807398B
:10089800013E502C0310F50DFF3E031D4E2C75082C
:1008A800FF3A800577080A128A11EA210A128A118A
:1008B800831203134A08840083174B1C83130130E7
:1008C800F5004C0CF600F60C760C0739013E6E2C40
:1008D8000310F50DFF3E031D6C2C750880040B30CA
:1008E800F6006230F500F50B772CF60B772C00003C
:1008F800831203134A08840083174B1C83130130A7
:10090800F5004C0CF600F60C760C0739013E8E2CDF
:100918000310F50DFF3E031D8C2C7508FF3A80056A
:100928000800F6000330F400F40B982C833083128F
:1009380003139F057608F40001300310F40DFF3E01
:10094800031DA12C0310740D9F040630F5003030F0
:10095800F400F40BAD2CF50BAD2C0000831203133F
:100968009F149F18B82CB92CB52C1E08F3008316B9
:1009780003131E08F2000800F601F701D22C033019
:10098800F5009730F400F40BC72CF50BC72CCC2CD2
:100998000130F6070318F70A0030F70773087702E3
:1009A800031DD82C72087602031CDB2CDC2CC32C0C
:1009B80008008B1CE02CE12CED2C01308312031372
:1009C800D10702305102031CEA2CEB2CEC2CD1018C
:1009D8008B1071088A00700E8300FE0E7E0E0900CF
:1009E800073400341A342C343E3400340A340A34C0
:1009F80000340E3411340034003400340A340A341C
:100A0800003411340E34003400347E088A007F0824
:100A180082000A128A1109250A128A118000840AA2
:100A280004087D0603190034FF0A0319FE0A0D2D78
:100A380003308316031788008901013083120313DA
:100A48009F008030831603139F000800831603134A
:0E0A58000614811301138B100B168B17080068
:04400E00F12FFF3F50
:00000001FF
