:060000000A128A110E280D
:10000800FE00030EF1000408F2000A08F3000A12C9
:100018008A1181290A128A1111280A128A11782351
:100028000A128A11C7000A128A1179230A128A1140
:10003800C8000A128A117A230A128A11C9000A1200
:100048008A117B230A128A11CA000A128A117C2398
:100058000A128A11F8000A128A117D230A128A11DB
:10006800F90083133730840047300A128A1170234D
:100078000A128A11F501F601F70183010A128A11A1
:10008800EC28831203134608031D4B284C284D28DF
:10009800EB284908803A7F3E031C53285428BA2885
:1000A80006307806031D59285A28BA287908A1006D
:1000B800A201A11BA2032208803AA30080302302D8
:1000C800031D682848082102031C6B286C28B428E3
:1000D800790883120313A100A201A11BA2034808F7
:1000E800023EA300003003180130A4002408803A1F
:1000F800A5002208803A2502031D8428210823022E
:10010800031C87288828B428FF3083120313C900EA
:100118007908A100A201A11BA20348082106220414
:10012800031D972898289B28FF30CA00BA28790809
:10013800A100A201A11BA2034808023EA3000030AF
:1001480003180130A40022082406031DAD28210845
:100158002306031DB028B128BA280130CA00BA28DE
:100168000A128A1103230A128A11EB284A08F9078E
:100178004908F807F91FC128C228C528F901013024
:10018800CA007908803A783E031CCB28CC28D028AE
:100198000730F900FF30CA00F81FD328D428EB280D
:1001A800AA300A128A1166230A128A1179080A12D9
:1001B8008A1166230A128A11831203134A080A1243
:1001C8008A1166230A128A1183120313C6010800D2
:1001D800FF308316031385008601880183120313F9
:1001E80085018601FF3088000A128A1158230A12F5
:1001F8008A110A128A1148230A128A110A128A11CC
:1002080021230A128A1183120313C6010A128A11C2
:1002180037230A128A110A128A11EB210A128A114B
:1002280083120313B501B60183120313440803199B
:100238001E291F295E293F084102B3004008031CFC
:10024800400A4202B400013034022C300319330250
:10025800031C2F29302948294208C0004108BF0043
:100268004708031938293A2901303B290030C700CB
:100278000130C3070A128A1137230A128A110A1297
:100288008A11EB210A128A110630831203134302E2
:10029800031C4F2950291829C4010130C7000A122C
:1002A8008A1137230A128A110A128A11EB210A12BB
:1002B8008A11182935084102B3003608031C360A8A
:1002C8004202B40000303402783003193302031CB0
:1002D8006E296F2918294208B6004108B5000A128C
:1002E8008A1148220A128A110A128A1145200A1212
:1002F8008A1153290A128A110E280B1D842985296F
:10030800AD290B11C2308312031381008601FF301F
:1003180088000130F000770A93290310F00DFF3EA2
:10032800031D9129700886007708373E84008313DF
:10033800000988000130F70708307702031CA52957
:10034800A629A729F7010130C1070318C20A0030FE
:10035800C207831203138C1EB229B329E2291A0893
:10036800F400D129AA307406031DBB29BC29DC2955
:100378000130F600DC297408F5000230F600DC29AB
:100388007408C5007508F900F8014508CA0001306D
:10039800C9000130C600F601DC297608003A0319C5
:1003A800B629013A0319BF29033A0319C429DC29DC
:1003B800981CDF29E029E2291812181673088A0008
:1003C80072088400710E8300FE0E7E0E0900F91F6C
:1003D800EE29EF29F029F9017908803A783E031CC3
:1003E800F629F729F9290730F900F81FFC29FD2912
:1003F800FE29F8017808803A783E031C042A052A69
:10040800072A0730F80083120313470803190D2A37
:100418000E2A222A46080319122A132A222A7808A1
:10042800373E84000130A000790A1C2A0310A00D71
:10043800FF3E031D1A2A2008831380040130A00000
:10044800480A282A0310A00DFF3E031D262A20086B
:10045800BE040130A0004808013E013E352A0310C1
:10046800A00DFF3E031D332A2008BE040130A00062
:100478004808023E013E422A0310A00DFF3E031D1C
:10048800402A2008BE04080000300A128A11DC2223
:100498000A128A11831203132108B2002008B1003E
:1004A8000030320232300319310203185C2A5D2A07
:1004B8005F2AC801932A03303202CB300319310274
:1004C800031C672A682A6B2A0530C800932A31085A
:1004D800A0003208A100A201A3010030A70000304B
:1004E800A6000030A5000630A4000A128A11942242
:1004F8000A128A11831203132008AD002108AE00E6
:100508002208AF002308B0000A300310B00CAF0C6B
:10051800AE0CAD0CFF3E031D892A2D08C80008004B
:10052800003083120313AC000030AB000030AA0087
:100538000030A900201CA12AA22AB92A2408A90748
:10054800250803110318013E0319AB2AAA07260838
:1005580003110318013E0319B22AAB072708031138
:100568000318013E0319B92AAC070130A80003108B
:10057800A40DA50DA60DA70DA80BBB2A01300310CD
:10058800A30CA20CA10CA00CFF3E031DC32A230838
:10059800220421042004031DD22AD32A9E2A2C08CF
:1005A800A3002B08A2002A08A1002908A00008001F
:1005B80083120313A300C5309F052308A20002304D
:1005C8000310A20DFF3E031DE42A0310220D9F0411
:1005D8000C3083120313A200A20BF02A000083122E
:1005E80003139F149F18F92AFA2AF62A1E08A10055
:1005F800831603131E0883120313A0000800043097
:10060800F9000430F800013083120313CA00FF30E8
:10061800C9000130C400C3010130C7004208C0004E
:100628004108BF000A128A1137230A128A110A12D6
:100638008A11EB210A128A11080083160313071383
:1006480087170C309900181518128312031398177E
:100658008316031398168312031318168C12831625
:1006680003138C16080083120313A0012008373ED9
:100678008400831380010130A00708302002031C86
:10068800462B472B3A2B080083160313811281113E
:10069800011581100110C2308312031381000B1160
:1006A8008B168B170B170800013083160317880069
:1006B80089010130831203139F00803083160313CE
:1006C8009F00080083120313A0000C1E6C2B6D2BD7
:1006D800692B20089900080064008001840A040638
:1006E800031900340406712B01340234FF34013439
:0406F800043404348E
:04400E00F22FFF3F4F
:00000001FF
