:100000000A128A11D02FFF1B0D2883137F18831724
:100010000008840A0319FF0A080000308A00040857
:10002000840A8207003456346F346C34743461347B
:100030006A346534203431343A34003456346F3401
:100040006C34743461346A346534203432343A3474
:0E0050000034253475342E34253475340034D4
:1000BE000800073400341A342C343E3464008001B6
:1000CE00840A0406031900340406662803308316D6
:1000DE000317880089010130831203139F008030BB
:1000EE00831603139F000800323083120313B700E8
:1000FE003008B8000030B900BA01BB01C101C2011D
:10010E003830AC000030AD003108AE003730AF00F3
:10011E000A128A119E200A128A11831203133A08B8
:10012E003007B6003608840083138001080083125E
:10013E0003132E08FD00B228831203132C08A0000F
:10014E002D08A1007D30A2002F08A3000A128A11EB
:10015E006D250A128A117D0884000A128A110D205B
:10016E000A128A11003A031DBD28BE28A328831245
:10017E000313AC01AD010800F4000330F200F20BE2
:10018E00C6288330831203139F057408F2000130D2
:10019E000310F20DFF3E031DCF280310720D9F04B6
:1001AE000630F3003030F200F20BDB28F30BDB28C5
:1001BE000000831203139F149F18E628E728E328F4
:1001CE001E08F100831603131E08F00008007008C5
:1001DE0071040319F328F42821290130F4000029B1
:1001EE0001300310F00DF10DFF3E031DF828013014
:1001FE00F407F11F03290429F72871087302031D60
:10020E000A2970087202031C0D290E291429700880
:10021E00F2027108031CF303F30201300310F10C18
:10022E00F00CFF3E031D15290130F402031D202999
:10023E00212904297308F1007208F0000800FB015F
:10024E00FC014B297B087607F9007708F8000318A4
:10025E00F80AFB1F3329F8037808FA007A0883128C
:10026E000313FF00790884000A128A1103200A1270
:10027E008A110A128A1145220A128A110130FB07CD
:10028E000318FC0A0030FC077B087607F900770894
:10029E00F8000318F80AFB1F5529F8037808FA002E
:1002AE007A0883120313FF00790884000A128A1158
:1002BE0003200A128A11003A031D6629672929298B
:1002CE000800F401F5017008710403196F297029F3
:1002DE00A5290130F6007C2901300310F00DF10D37
:1002EE00FF3E031D74290130F607F11F7F29802977
:1002FE00732901300310F40DF50DFF3E031D812906
:10030E0071087302031D8D2970087202031C902957
:10031E00912998297008F2027108031CF303F30265
:10032E00741401300310F10CF00CFF3E031D9929DB
:10033E000130F602031DA429A52980297508F100B4
:10034E007408F00008000030FC000030FB000030A4
:10035E00FA000030F900701CB529B629CD297408B1
:10036E00F907750803110318013E0319BF29FA078F
:10037E00760803110318013E0319C629FB077708F7
:10038E0003110318013E0319CD29FC070130F800B3
:10039E000310F40DF50DF60DF70DF80BCF29013006
:1003AE000310F30CF20CF10CF00CFF3E031DD729D9
:1003BE007308720471047004031DE629E729B2293B
:1003CE007C08F3007B08F2007A08F1007908F0004F
:1003DE000800F50083160313400884008317411CA0
:1003EE0083130130F30042080739013E002A03103F
:1003FE00F30DFF3E031DFE297308FF3A80057508B5
:10040E000A128A11B3240A128A11831603134008A2
:10041E0084008317411C83130130F300420CF40057
:10042E00F40C740C0739013E1E2A0310F30DFF3E27
:10043E00031D1C2A730880040B30F4006230F30095
:10044E00F30B272AF40B272A000083160313400808
:10045E0084008317411C83130130F300420CF40017
:10046E00F40C740C0739013E3E2A0310F30DFF3EC7
:10047E00031D3C2A7308FF3A80050800F500831619
:10048E000313400884008317411C83130130F300CB
:10049E0042080739013E552A0310F30DFF3E031D96
:1004AE00532A730880047508F30004300310F30C0C
:1004BE00FF3E031D5D2A73080F390A128A11B324F9
:1004CE000A128A1183160313400884008317411CF5
:1004DE0083130130F300420CF400F40C740C073952
:1004EE00013E7B2A0310F30DFF3E031D792A73088C
:1004FE0080041A30F300F30B822A000083160313D4
:10050E00400884008317411C83130130F300420C12
:10051E00F400F40C740C0739013E972A0310F30D06
:10052E00FF3E031D952A7308FF3A800575080F39A3
:10053E000A128A11B3240A128A1183160313400871
:10054E0084008317411C83130130F300420CF40026
:10055E00F40C740C0739013EB62A0310F30DFF3E5E
:10056E00031DB42A730880041A30F300F30BBD2A5E
:10057E00000083160313400884008317411C831365
:10058E000130F300420CF400F40C740C0739013EF8
:10059E00D22A0310F30DFF3E031DD02A7308FF3A33
:1005AE008005080083120313A901A31FDF2AE02A86
:1005BE00ED2AA009A109A209A309A00A0319A10AFB
:1005CE000319A20A0319A30A0130A900A71FF02AD2
:1005DE00F12AFE2AA409A509A609A709A40A031946
:1005EE00A50A0319A60A0319A70A0130A9060030A5
:1005FE00AD000030AC000030AB000030AA00230884
:10060E0022042104200403190D2B0E2B592B01302B
:10061E00A8001C2B0130FD000310A00DA10DA20D92
:10062E00A30DFD0B132B0130A807A31F1F2B202B8F
:10063E00112B0130FD000310AA0DAB0DAC0DAD0D4D
:10064E00FD0B222B23082702031D372B220826021F
:10065E00031D372B21082502031D372B20082402EA
:10066E00031C3A2B3B2B4A2B2008A4022108031C07
:10067E00210FA5022208031C220FA6022308031C29
:10068E00230FA7022A1401300310A30CA20CA10CF5
:10069E00A00CFF3E031D4B2B0130A802031D582B4F
:1006AE00592B202B290803195D2B5E2B692BAA09C8
:1006BE00AB09AC09AD09AA0A0319AB0A0319AC0AB6
:1006CE000319AD0A2D08A3002C08A2002B08A100C7
:1006DE002A08A0000800720873040319772B782BE0
:1006EE007E2B72087304031D7D2B7E2B852B7008C9
:1006FE000A128A115F200A128A110B2C7208093E07
:10070E00F40073080318013E003EF50074088400DF
:10071E008317751C83130008F600840A0008F7007F
:10072E007608770403199C2B9D2BCF2B7208093E5C
:10073E00F40073080318013E003EF50074088400AF
:10074E008317751C83130008F600840A0008F7004F
:10075E007208023EF80073080318013E003EF900CD
:10076E00780884008317791C83130008FA00840A22
:10077E000008FB007B08803AFC007708803A7C0278
:10078E00031DCB2B76087A020318CE2BCF2B0B2C06
:10079E00720884008317731C83130008F400840A04
:1007AE000008F5007208023EF60073080318013EB9
:1007BE00003EF700760884008317771C8313000829
:1007CE007407F9007508F8000318F80A801FF02B5B
:1007DE00F8037808FA007908840083177A1C8313CB
:1007EE00700880007208023EF40073080318013E80
:1007FE00003EF500740884008317751C83130130C6
:10080E008007840A0318800A0800C0308400760826
:10081E0083138000840A77088000840A7808800099
:10082E00840A79088000840A7A08800000308316D2
:10083E0003134106031D252C05304006031D282CED
:10084E00292C2B2C8501422C00304106031D312C06
:10085E0006304006031D342C352C372C8601422CD5
:10086E0000304106031D3D2C07304006031D402C71
:10087E00412CB22C87013430FC00F130FB00FB0B15
:10088E00462CFC0B462C4B2C03300A128A11F021FD
:10089E000A128A110D30FC00FB30FB00FB0B552CAD
:1008AE00FC0B552C5A2C03300A128A11F0210A1215
:1008BE008A112A30FC008D30FB00FB0B642CFC0BE4
:1008CE00642C692C03300A128A11F0210A128A1143
:1008DE0002300A128A11F0210A128A1102300A120B
:1008EE008A11F0210A128A1108300A128A11F02197
:1008FE000A128A1100300A128A11F0210A128A1184
:10090E0006300A128A11F0210A128A110830FD00EF
:10091E007D157D08FB0004300310FB0CFF3E031D0C
:10092E00932C7B080F390A128A11F0210A128A11B0
:10093E007D080F390A128A11F0210A128A1100302D
:10094E000A128A11F0210A128A1101300A128A1132
:10095E00F0210A128A110800F200721CB72CB82C72
:10096E00CD2C83160313400884008317411C831378
:10097E000130F00043080739013EC72C0310F00D7B
:10098E00FF3E031DC52C70088004E22C8316031352
:10099E00400884008317411C83130130F000430884
:1009AE000739013EDC2C0310F00DFF3E031DDA2C3F
:1009BE007008FF3A8005F21CE52CE62CFC2C400852
:1009CE0084008317411C83130130F000430CF100A7
:1009DE00F10C710C0739013EF62C0310F00DFF3EA1
:1009EE00031DF42C70088004122D40088400831718
:1009FE00411C83130130F000430CF100F10C710C1B
:100A0E000739013E0C2D0310F00DFF3E031D0A2D7C
:100A1E007008FF3A8005721D152D162D292D4008E0
:100A2E0084008317411C83130130F00044080739FA
:100A3E00013E232D0310F00DFF3E031D212D7008E6
:100A4E0080043C2D400884008317411C8313013021
:100A5E00F00044080739013E362D0310F00DFF3E1D
:100A6E00031D342D7008FF3A8005F21D3F2D402DD9
:100A7E00562D400884008317411C83130130F0006B
:100A8E00440CF100F10C710C0739013E502D03108E
:100A9E00F00DFF3E031D4E2D700880046C2D400896
:100AAE0084008317411C83130130F000440CF100C5
:100ABE00F10C710C0739013E662D0310F00DFF3E4F
:100ACE00031D642D7008FF3A80050800831203137E
:100ADE0022088400000884000A128A110D200A12CE
:100AEE008A11253A031D7C2D7D2D1F2E2208840090
:100AFE000130800783160313C501C601003083122F
:100B0E000313EF00FF3083160313C700FF30C80036
:100B1E0083120313220884000008AA002A08840006
:100B2E000A128A110D200A128A11753A031DA02D80
:100B3E00A12D182E2308840083130008A400023070
:100B4E008007240884000008A600840A0008A70075
:100B5E00220884002A08013E80000D2E2030AB00B2
:100B6E000130AB022B08A03E84000A30F0000030AA
:100B7E00F1002708F3002608F2000A128A11EE206F
:100B8E000A128A117008303E831380000A30F0007A
:100B9E000030F100831203132708F3002608F20039
:100BAE000A128A1168210A128A117108831203131C
:100BBE00A7007008A600260827040319E72DE82DC4
:100BCE00062E2B08031DEC2DED2DB72D062E2B0812
:100BDE00A03E840083130008A400A5012408F000A1
:100BEE002508F1002008F2002108F3000A128A11EC
:100BFE0072230A128A11013083120313AB072030BD
:100C0E002B06031D0B2E0C2EEE2D382E2A088400DB
:100C1E000A128A110D200A128A11753A0319B52D7E
:100C2E00182E831203132208840001308007382EF9
:100C3E0022088400000884000A128A110D200A126C
:100C4E008A11A400A5012408F0002508F10020084F
:100C5E00F2002108F3000A128A1172230A128A1175
:100C6E00182E08000A128A116D200A128A115A30A3
:100C7E00840083160313490883138000840A4A08EC
:100C8E008000840A4B088000840A4C088000840A85
:100C9E004D08800076308400831203135A088000BA
:100CAE00840A5B088000840A5C088000840A5D0860
:100CBE008000840A5E0880000A128A110C240A122F
:100CCE008A1100300A128A11F0210A128A1101309B
:100CDE000A128A11F0210A128A1108300A128A1198
:100CEE00F0210A128A1100300A128A11F0210A121A
:100CFE008A110130F6008030F7000A128A1126217F
:100D0E000A128A1108300A128A11F0210A128A1167
:100D1E000B300A128A11F0210A128A1100300A12BF
:100D2E008A11C3200A128A11710883120313E0007C
:100D3E007008DF000030A3000030A2000330A100D5
:100D4E00FF30A0005F08F0006008F100F201F3012F
:100D5E000030F7000030F600C330F5005030F400DC
:100D6E000A128A11AA210A128A1173088312031316
:100D7E00A7007208A6007108A5007008A4000A1248
:100D8E008A11D9220A128A11831203132108EC0048
:100D9E002008EB001030F0002730F1006C08F30053
:100DAE006B08F2000A128A1168210A128A11710860
:100DBE0083120313E2007008E1001030F0002730B8
:100DCE00F1006C08F3006B08F2000A128A11EE2093
:100DDE000A128A11710883120313E4007008E300EB
:100DEE004630B0001730B1006208B3006108B2009F
:100DFE006408B5006308B4000A128A117B200A1237
:100E0E008A114630F6000030F7000A128A112621A8
:100E1E000A128A11023083120313C5000430C40073
:100E2E00B930C300C30B192FC40B192FC50B192FC3
:100E3E00202F0C300A128A11F0210A128A1100306A
:100E4E000A128A11F0210A128A110C30F600803033
:100E5E00F7000A128A1126210A128A110C300A1280
:100E6E008A11F0210A128A110B300A128A11F0210E
:100E7E000A128A1101300A128A11C3200A128A112B
:100E8E00710883120313E6007008E5000030A3001A
:100E9E000030A2000330A100FF30A0006508F00072
:100EAE006608F100F201F3010030F7000030F600A1
:100EBE00C330F5005030F4000A128A11AA210A122A
:100ECE008A11730883120313A7007208A600710813
:100EDE00A5007008A4000A128A11D9220A128A11DA
:100EEE00831203132108EE002008ED001030F000ED
:100EFE002730F1006E08F3006D08F2000A128A1115
:100F0E0068210A128A11710883120313E80070080F
:100F1E00E7001030F0002730F1006E08F3006D0886
:100F2E00F2000A128A11EE200A128A117108831237
:100F3E000313EA007008E9005030B0001730B1001A
:100F4E006808B3006708B2006A08B5006908B40003
:100F5E000A128A117B200A128A115030F6000030D4
:100F6E00F7000A128A1126210A128A110230831200
:100F7E000313C5000430C400B930C300C30BC52F22
:100F8E00C40BC52FC50BC52FCC2F682E0A128A1184
:100F9E000028831603130A128A1160200A128A117E
:100FAE00C9000A128A1161200A128A11CA000A1295
:100FBE008A1162200A128A11CB000A128A1163204A
:100FCE000A128A11CC000A128A1164200A128A119E
:100FDE00CD008313A0308400C9300A128A11652017
:100FEE000A128A1183120313EF0183010A128A1166
:020FFE00392E8A
:04400E00F12FFF3F50
:00000001FF
