:100000000A128A11CD2FFF1B0D2883137F18831727
:100010000008840A0319FF0A080000308A00040857
:10002000840A8207003456346F346C34743461347B
:100030006A3465343A3420340034253475342E342F
:0600400025347534003484
:10024A000800073400341A342C343E346400800128
:10025A00840A04060319003404062C290130831683
:10026A00031788008130831203139F00803083169E
:10027A0003139F0008000D30F300FB30F200F20B6D
:10028A004429F30B44294929831203139F149F1805
:10029A004F2950294C291E08F100831603131E0802
:1002AA00F0000800323083120313B7003008B80098
:1002BA000030B900BA01BB01C101C2013830AC003B
:1002CA000030AD003108AE003730AF000A128A1193
:1002DA007A210A128A11831203133A083007B600E8
:1002EA0036088400831380010800831203132E0842
:1002FA00FD008E29831203132C08A0002D08A100EB
:10030A007D30A2002F08A3000A128A1121260A12A0
:10031A008A117D0884000A128A110D200A128A1194
:10032A00003A031D99299A297F2983120313AC01E4
:10033A00AD010800700871040319A429A529D2295E
:10034A000130F400B12901300310F00DF10DFF3E28
:10035A00031DA9290130F407F11FB429B529A829D9
:10036A0071087302031DBB2970087202031CBE299F
:10037A00BF29C5297008F2027108031CF303F302AE
:10038A0001300310F10CF00CFF3E031DC6290130A9
:10039A00F402031DD129D229B5297308F100720884
:1003AA00F0000800FB01FC01FC297B087607F90034
:1003BA007708F8000318F80AFB1FE429F8037808FD
:1003CA00FA007A0883120313FF00790884000A12DC
:1003DA008A1103200A128A110A128A11F6220A12B3
:1003EA008A110130FB070318FC0A0030FC077B085E
:1003FA007607F9007708F8000318F80AFB1F062A9F
:10040A00F8037808FA007A0883120313FF007908C0
:10041A0084000A128A1103200A128A11003A031D63
:10042A00172A182ADA290800F401F501700871045C
:10043A000319202A212A562A0130F6002D2A0130D2
:10044A000310F00DF10DFF3E031D252A0130F607BA
:10045A00F11F302A312A242A01300310F40DF50D38
:10046A00FF3E031D322A71087302031D3E2A7008DB
:10047A007202031C412A422A492A7008F2027108B0
:10048A00031CF303F302741401300310F10CF00C93
:10049A00FF3E031D4A2A0130F602031D552A562A39
:1004AA00312A7508F1007408F00008000030FC00D9
:1004BA000030FB000030FA000030F900701C662A98
:1004CA00672A7E2A7408F907750803110318013E82
:1004DA000319702AFA07760803110318013E031953
:1004EA00772AFB07770803110318013E03197E2AAE
:1004FA00FC070130F8000310F40DF50DF60DF70DA9
:10050A00F80B802A01300310F30CF20CF10CF00CFA
:10051A00FF3E031D882A7308720471047004031DC8
:10052A00972A982A632A7C08F3007B08F2007A0843
:10053A00F1007908F0000800F500831203135D0842
:10054A00840083175E1C83130130F3005F080739A8
:10055A00013EB12A0310F30DFF3E031DAF2A7308B3
:10056A00FF3A800575080A128A1167250A128A114C
:10057A00831203135D08840083175E1C8313013002
:10058A00F3005F0CF400F40C740C0739013ECF2A17
:10059A000310F30DFF3E031DCD2A730880040630B5
:1005AA00F4003030F300F30BD82AF40BD82A0000F9
:1005BA00831203135D08840083175E1C83130130C2
:1005CA00F3005F0CF400F40C740C0739013EEF2AB7
:1005DA000310F30DFF3E031DED2A7308FF3A800551
:1005EA000800F500831203135D08840083175E1C5C
:1005FA0083130130F3005F080739013E062B03100D
:10060A00F30DFF3E031D042B730880047508F300E5
:10061A0004300310F30CFF3E031D0E2B73080F3931
:10062A000A128A1167250A128A11831203135D08B6
:10063A00840083175E1C83130130F3005F0CF400FF
:10064A00F40C740C0739013E2C2B0310F30DFF3EFA
:10065A00031D2A2B730880040D30F300F30B332B90
:10066A00831203135D08840083175E1C8313013011
:10067A00F3005F0CF400F40C740C0739013E472BAD
:10068A000310F30DFF3E031D452B7308FF3A800547
:10069A0075080F390A128A1167250A128A118312FC
:1006AA0003135D08840083175E1C83130130F30073
:1006BA005F0CF400F40C740C0739013E662B03102E
:1006CA00F30DFF3E031D642B730880040D30F30005
:1006DA00F30B6D2B831203135D08840083175E1CD2
:1006EA0083130130F3005F0CF400F40C740C073927
:1006FA00013E812B0310F30DFF3E031D7F2B730870
:10070A00FF3A8005080083120313A901A31F8E2B49
:10071A008F2B9C2BA009A109A209A309A00A0319DE
:10072A00A10A0319A20A0319A30A0130A900A71FE3
:10073A009F2BA02BAD2BA409A509A609A709A40ADA
:10074A000319A50A0319A60A0319A70A0130A9065B
:10075A000030AD000030AC000030AB000030AA0021
:10076A0023082204210420040319BC2BBD2B082CC6
:10077A000130A800CB2B0130FD000310A00DA10D04
:10078A00A20DA30DFD0BC22B0130A807A31FCE2B70
:10079A00CF2BC02B0130FD000310AA0DAB0DAC0D01
:1007AA00AD0DFD0BD12B23082702031DE62B2208D2
:1007BA002602031DE62B21082502031DE62B20082D
:1007CA002402031CE92BEA2BF92B2008A402210896
:1007DA00031C210FA5022208031C220FA6022308CC
:1007EA00031C230FA7022A1401300310A30CA20C26
:1007FA00A10CA00CFF3E031DFA2B0130A802031D19
:10080A00072C082CCF2B290803190C2C0D2C182C7B
:10081A00AA09AB09AC09AD09AA0A0319AB0A03195B
:10082A00AC0A0319AD0A2D08A3002C08A2002B0854
:10083A00A1002A08A0000800720873040319262CD4
:10084A00272C2D2C72087304031D2C2C2D2C342CD0
:10085A0070080A128A1125210A128A11BA2C720802
:10086A00093EF40073080318013E003EF5007408BF
:10087A0084008317751C83130008F600840A000895
:10088A00F7007608770403194B2C4C2C7E2C72083F
:10089A00093EF40073080318013E003EF50074088F
:1008AA0084008317751C83130008F600840A000865
:1008BA00F7007208023EF80073080318013E003E72
:1008CA00F900780884008317791C83130008FA005A
:1008DA00840A0008FB007B08803AFC007708803A0B
:1008EA007C02031D7A2C76087A0203187D2C7E2C52
:1008FA00BA2C720884008317731C83130008F4004F
:10090A00840A0008F5007208023EF600730803180C
:10091A00013E003EF700760884008317771C831394
:10092A0000087407F9007508F8000318F80A801F10
:10093A009F2CF8037808FA007908840083177A1C38
:10094A008313700880007208023EF40073080318CB
:10095A00013E003EF500740884008317751C83135A
:10096A0001308007840A0318800A08005D30840079
:10097A00760883138000840A77088000840A78083E
:10098A008000840A79088000840A7A08800000308E
:10099A00831203135E06031DD42C05305D06031D66
:1009AA00D72CD82CDC2C831603138501F72C0030A6
:1009BA005E06031DE22C06305D06031DE52CE62CBF
:1009CA00EA2C831603138601F72C00305E06031DFA
:1009DA00F02C07305D06031DF32CF42C662D8316CC
:1009EA00031387011A30FC00F830FB00FB0BFB2CC9
:1009FA00FC0BFB2C000003300A128A11A1220A12F6
:100A0A008A110730FC007D30FB00FB0B0A2DFC0B22
:100A1A000A2D03300A128A11A1220A128A111530EC
:100A2A00FC00C630FB00FB0B182DFC0B182D000038
:100A3A0003300A128A11A1220A128A1102300A12FA
:100A4A008A11A1220A128A1102300A128A11A122DB
:100A5A000A128A1108300A128A11A1220A128A116C
:100A6A0000300A128A11A1220A128A1106300A12C9
:100A7A008A11A1220A128A110830FD007D157D080B
:100A8A00FB0004300310FB0CFF3E031D472D7B08BF
:100A9A000F390A128A11A1220A128A117D080F3906
:100AAA000A128A11A1220A128A1100300A128A1124
:100ABA00A1220A128A1101300A128A11A1220A12EB
:100ACA008A110800F200721C6B2D6C2D812D831285
:100ADA0003135D08840083175E1C83130130F00042
:100AEA0060080739013E7B2D0310F00DFF3E031D00
:100AFA00792D70088004962D831203135D088400F3
:100B0A0083175E1C83130130F00060080739013E29
:100B1A00902D0310F00DFF3E031D8E2D7008FF3A35
:100B2A008005F21C992D9A2DB02D5D08840083173B
:100B3A005E1C83130130F000600CF100F10C710CA3
:100B4A000739013EAA2D0310F00DFF3E031DA82D03
:100B5A0070088004C62D5D08840083175E1C831309
:100B6A000130F000600CF100F10C710C0739013E04
:100B7A00C02D0310F00DFF3E031DBE2D7008FF3A75
:100B8A008005721DC92DCA2DDD2D5D0884008317CD
:100B9A005E1C83130130F00061080739013ED72D2E
:100BAA000310F00DFF3E031DD52D70088004F02DB3
:100BBA005D08840083175E1C83130130F00061080E
:100BCA000739013EEA2D0310F00DFF3E031DE82D03
:100BDA007008FF3A8005F21DF32DF42D0A2E5D08E8
:100BEA00840083175E1C83130130F000610CF1004E
:100BFA00F10C710C0739013E042E0310F00DFF3E73
:100C0A00031D022E70088004202E5D0884008317BD
:100C1A005E1C83130130F000610CF100F10C710CC1
:100C2A000739013E1A2E0310F00DFF3E031D182E40
:100C3A007008FF3A80050800831203132208840013
:100C4A00000884000A128A110D200A128A11253A14
:100C5A00031D302E312ECB2E22088400013080074E
:100C6A00E201E3010030E600FF30E400FF30E50076
:100C7A00220884000008AA002A0884000A128A119D
:100C8A000D200A128A11753A031D4C2E4D2EC42EC0
:100C9A002308840083130008A40002308007240874
:100CAA0084000008A600840A0008A700220884001D
:100CBA002A08013E8000B92E2030AB000130AB0279
:100CCA002B08A03E84000A30F0000030F10027080B
:100CDA00F3002608F2000A128A119F210A128A11C9
:100CEA007008303E831380000A30F0000030F100B3
:100CFA00831203132708F3002608F2000A128A1146
:100D0A0019220A128A11710883120313A7007008A4
:100D1A00A600260827040319932E942EB22E2B0818
:100D2A00031D982E992E632EB22E2B08A03E840006
:100D3A0083130008A400A5012408F0002508F10087
:100D4A002008F2002108F3000A128A1121240A124B
:100D5A008A11013083120313AB0720302B06031DBF
:100D6A00B72EB82E9A2EE42E2A0884000A128A1167
:100D7A000D200A128A11753A0319612EC42E8312A4
:100D8A0003132208840001308007E42E220884001D
:100D9A00000884000A128A110D200A128A11A4007E
:100DAA00A5012408F0002508F1002008F200210816
:100DBA00F3000A128A1121240A128A11C42E080089
:100DCA000A128A1133210A128A11503084008312BE
:100DDA000313670883138000840A68088000840A62
:100DEA0069088000840A6A088000840A6B08800007
:100DFA007630840050088000840A51088000840AF2
:100E0A0052088000840A53088000840A540880002B
:100E1A000A128A11BB240A128A1100300A128A1194
:100E2A00A1220A128A1101300A128A11A1220A1277
:100E3A008A1108300A128A11A1220A128A11003074
:100E4A000A128A11A1220A128A110130F600803090
:100E5A00F7000A128A11D7210A128A1108300A12D7
:100E6A008A11A1220A128A1109300A128A11A122B0
:100E7A000A128A110A128A1140210A128A11710869
:100E8A0083120313D6007008D5000030A300003087
:100E9A00A2000330A100FF30A0005508F000560858
:100EAA00F100F201F3010030F7000030F600C33020
:100EBA00F5005030F4000A128A115B220A128A11D4
:100ECA00730883120313A7007208A6007108A5000D
:100EDA007008A4000A128A1188230A128A1183123E
:100EEA0003132108DC002008DB001030F000273053
:100EFA00F1005C08F3005B08F2000A128A11192259
:100F0A000A128A11710883120313D8007008D700D5
:100F1A001030F0002730F1005C08F3005B08F200A3
:100F2A000A128A119F210A128A1171088312031365
:100F3A00DA007008D9004630B0000B30B10058080A
:100F4A00B3005708B2005A08B5005908B4000A128B
:100F5A008A1157210A128A114630F6000030F7002A
:100F6A000A128A11D7210A128A1103308312031333
:100F7A00C5000830C4007630C300C30BC22FC40BAF
:100F8A00C22FC50BC22F0000122F0A128A11002885
:100F9A000A128A1126210A128A11E7000A128A11F4
:100FAA0027210A128A11E8000A128A1128210A1234
:100FBA008A11E9000A128A1129210A128A11EA0001
:100FCA000A128A112A210A128A11EB008313A0300D
:100FDA008400C0300A128A112B210A128A115D304C
:100FEA00840067300A128A112B210A128A1183019E
:060FFA000A128A11E52E27
:04400E00F12FFF3F50
:00000001FF
