:060000000A128A11C32F51
:100008000800F31B082809280A2819287009F00095
:100018007109F1007209F2007309F300F00A03197B
:10002800F10A0319F20A0319F30A08000310720D02
:10003800730DF9007908031D222823282C28003085
:10004800F3000030F2000030F1000030F0008D289D
:100058007008F4007108F5007208F6007308F700DC
:100068001F300310F70CF60CF50CF40CFF3E031DC3
:1000780035287408F800F217FF30F005FF30F10555
:10008800FF30F2050030F3059630F902F91F4D28CC
:100098004E2866287908803A973E03185428552830
:1000A8005628232801300310F30CF20CF10CF00C45
:1000B800FF3E031D57280130F907031D64286528F2
:1000C80056287D2820307902031C6B286C28782854
:1000D80023280130F4000310F00DF10DF20DF30D9B
:1000E800F40B6F280130F9027908031D7C287D285C
:1000F8006D2878080319812882288D28F009F109CC
:10010800F209F309F00A0319F10A0319F20A0319AB
:10011800F30A08003F3083160313CB008030CA006F
:100128000030C9000030C800AF01B0014708F30033
:100138004608F2004508F1004408F0000030F700D6
:100148000030F6000030F5000030F4000A168A1579
:1001580099220A128A110318B228B328C42AC4287B
:10016800831603133608CB003508CA003408C900C3
:100178003308C8000130AF070318B00A0030B007D1
:10018800413083120313A3002030A2000030A100E5
:100198000030A000831603134B0883120313A70033
:1001A800831603134A0883120313A6008316031346
:1001B800490883120313A500831603134808831202
:1001C8000313A4000A128A1543210A128A11831202
:1001D8000313230883160313B6008312031322089C
:1001E80083160313B5008312031321088316031320
:1001F800B40083120313200883160313B3004408C2
:1002080083120313D80083160313450883120313BC
:10021800D90083160313460883120313DA008316E2
:100228000313470883120313DB00831603133308F1
:1002380083120313D802831603133408031C340FE4
:100248002629292983120313D90283160313350893
:10025800031C350F3029332983120313DA0283165E
:1002680003133608031C360F3A293D29831203135A
:10027800DB0283160313831203135B08F3005A0887
:10028800F2005908F1005808F0000A128A110520F6
:100298000A128A11F31B60297308031D6129720869
:1002A800031D61297108031D612902307002031DB5
:1002B8005D29031C60296129B428831603133608B5
:1002C80083120313B800831603133508831203132C
:1002D800B70083160313340883120313B60083167A
:1002E8000313330883120313B50083160313470857
:1002F80083120313BC0083160313460883120313E7
:10030800BB0083160313450883120313BA00831630
:100318000313440883120313B9000A168A154825E3
:100328000A128A11031C99299A29B42883160313DF
:10033800440883120313D800831603134508831255
:100348000313D90083160313460883120313DA0034
:1003580083160313470883120313DB008316031362
:10036800480883120313D802831603134908031C91
:10037800490FBF29C22983120313D9028316031315
:100388004A08031C4A0FC929CC2983120313DA022D
:10039800831603134B08031C4B0FD329D62983124A
:1003A8000313DB0283160313831203135B08F300A2
:1003B8005A08F2005908F1005808F0000A128A1188
:1003C80005200A128A11F31BFA297308031DF9295B
:1003D8007208031DF9297108031DF92902307002FA
:1003E800031DF6290318F929FA298B2A8316031302
:1003F8004B08C7004A08C6004908C5004808C40099
:10040800C42A4130F3002030F2000030F1000030FF
:10041800F000831603134B08F7004A08F600490852
:10042800F5004808F4000A168A11E0230A128A1116
:10043800730883160313CB007208CA007108C90039
:100448007008C800FF30AF070318B00AFF30B007C4
:10045800440883120313D800831603134508831234
:100468000313D90083160313460883120313DA0013
:1004780083160313470883120313DB008316031341
:10048800480883120313D802831603134908031C70
:10049800490F4F2A522A83120313D90283160313D2
:1004A8004A08031C4A0F592A5C2A83120313DA02EA
:1004B800831603134B08031C4B0F632A662A831207
:1004C8000313DB0283160313831203135B08F30081
:1004D8005A08F2005908F1005808F0000A128A1167
:1004E80005200A128A11F31B8A2A7308031D892A18
:1004F8007208031D892A7108031D892A02307002B7
:10050800031D862A0318892A8A2A8B2AFA29831620
:100518000313470883120313B8008316031346080E
:1005280083120313B70083160313450883120313BA
:10053800B60083160313440883120313B500831609
:1005480003134B0883120313BC00831603134A08D2
:1005580083120313BB008316031349088312031382
:10056800BA0083160313480883120313B9000A1646
:100578008A1548250A128A11031CC32AC42A052A87
:1005880083120313570883160313A9002908AA0026
:10059800ED1BCF2AD02AD52A6D08A3006C08A2002B
:1005A800D92A0630A2000030A3002308AE00220892
:1005B800AD000130AD070318AE0A0030AE07663053
:1005C8002A06031DE82AE92A032BB01FEC2AED2A84
:1005D800F72A3F30CB008030CA000030C900003015
:1005E800C800AF01B001673029060319FC2AFD2AAB
:1005F800032B2F08AD070318AE0A3008AE07B70162
:10060800B8014708BC004608BB004508BA004408C2
:10061800B9004B08B6004A08B5004908B4004808B4
:10062800B300FE2B831603134B08F3004A08F200AD
:100638004908F1004808F0003C08F7003B08F600BC
:100648003A08F5003908F4000A168A11E0230A125C
:100658008A11730883120313B0007208AF0071087F
:10066800AE007008AD000A128A1534200A128A11E9
:1006780083120313300883160313C0008312031375
:100688002F0883160313BF00831203132E08831643
:100698000313BE00831203132D0883160313BD0032
:1006A8004008F3003F08F2003E08F1003D08F00062
:1006B8000A128A111A200A128A1171088316031362
:1006C800AC007008AB004B0883120313A700831615
:1006D80003134A0883120313A60083160313490859
:1006E80083120313A5008316031348088312031308
:1006F800A40083160313400883120313A300831670
:1007080003133F0883120313A200831603133E0842
:1007180083120313A100831603133D0883120313E6
:10072800A0000A128A1543210A128A1183120313A0
:100738002308CC002208CB002108CA002008C900E1
:10074800831603133C0883120313D0008316031384
:100758003B0883120313CF00831603133A0883124E
:100768000313CE0083160313390883120313CD0035
:100778000A168A15BC210A128A11831203134C081F
:1007880083160313BC00831203134B088316031349
:10079800BB00831203134A0883160313BA0083129B
:1007A8000313490883160313B9004130F3002030BE
:1007B800F2000030F1000030F0004B08F7004A0862
:1007C800F6004908F5004808F4000A168A11E023E3
:1007D8000A128A11730883160313CB007208CA0021
:1007E8007108C9007008C8000130B7070318B80AB3
:1007F8000030B8073808803A83120313D8008316EC
:1008080003132E08803A831203135802031D102C79
:10081800831603132D083702031C132C142C162BD4
:10082800403083120313A300A030A2000030A100BF
:100838000030A000831603134B0883120313A7008C
:10084800831603134A0883120313A600831603139F
:10085800490883120313A50083160313480883125B
:100868000313A4000A128A1543210A128A1183125B
:100878000313230883160313C000831203132208EB
:1008880083160313BF00831203132108831603136F
:10089800BE0083120313200883160313BD003C080F
:1008A80083120313B800831603133B088312031340
:1008B800B700831603133A0883120313B60083168E
:1008C8000313390883120313B50083160313400872
:1008D80083120313BC00831603133F088312031308
:1008E800BB00831603133E0883120313BA00831652
:1008F80003133D0883120313B9000A168A15482505
:100908000A128A110318892C8A2C952C0030831618
:100918000313C0000030BF000030BE000030BD002F
:10092800BE2C831603133C08F3003B08F2003A0878
:10093800F1003908F0004008F7003F08F6003E08CB
:10094800F5003D08F4000A168A1599220A128A1140
:10095800031CAF2CB02CBE2C831603132B18B52CFC
:10096800B62CBE2C0030C0000030BF000030BE00E6
:100978000030BD0083160313400883120313B80028
:10098800831603133F0883120313B7008316031358
:100998003E0883120313B600831603133D0883121F
:1009A8000313B50083160313470883120313BC000F
:1009B80083160313460883120313BB00831603131D
:1009C800450883120313BA008316031344088312DD
:1009D8000313B9000A168A11B0250A128A11831264
:1009E8000313380883160313BC0083120313370854
:1009F80083160313BB0083120313360883160313ED
:100A0800BA0083120313350883160313B9003C0890
:100A180083120313B800831603133B0883120313CE
:100A2800B700831603133A0883120313B60083161C
:100A38000313390883120313B5004130A300203093
:100A4800A2000030A1000030A0008316031336086E
:100A580083120313A70083160313350883120313A5
:100A6800A60083160313340883120313A500831604
:100A78000313330883120313A4000A128A154321AF
:100A88000A128A11831203132308BC002208BB0030
:100A98002108BA002008B9000A168A1548250A1242
:100AA8008A11031C582D592DAC2D013083160313C0
:100AB800AF070318B00A0030B007413083120313A0
:100AC800A3002030A2000030A1000030A00083164F
:100AD8000313360883120313A7008316031335087C
:100AE80083120313A6008316031334088312031317
:100AF800A50083160313330883120313A4000A12F4
:100B08008A1543210A128A118312031323088316B4
:100B18000313B60083120313220883160313B500C8
:100B280083120313210883160313B40083120313DB
:100B3800200883160313B30066302A06031DA52D6B
:100B4800A62DAC2D0130AD070318AE0A0030AE0754
:100B5800831603133608CB003508CA003408C900C9
:100B68003308C8003008A1002F08A000A801A4017C
:100B7800A501B701B801202F831603134B08F30012
:100B88004A08F2004908F1004808F0003C08F7005C
:100B98003B08F6003A08F5003908F4000A168A11ED
:100BA800E0230A128A11730883120313B000720833
:100BB800AF007108AE007008AD000A128A15342023
:100BC8000A128A1183120313300883160313C00014
:100BD800831203132F0883160313BF008312031312
:100BE8002E0883160313BE00831203132D088316E1
:100BF8000313BD004008F3003F08F2003E08F1006F
:100C08003D08F0000A128A111A200A128A11710886
:100C1800803AFF0080307F02031D142E0A307002D4
:100C28000318172E182E2E2E831603134008F300D0
:100C38003F08F2003E08F1003D08F0000A128A1150
:100C48001A200A128A11710883160313AC0070085F
:100C5800AB00342E093083160313AB000030AC0010
:100C68002808031D382E392E6A2EA11F3C2E3D2E32
:100C78006A2E4208103E84002E308317800001300F
:100C8800C2070318C30A0030C307FF30B1070318AF
:100C9800B20AFF30B2070130A8006A2E4208103E9F
:100CA80084003030831780000130C2070318C30A5C
:100CB8000030C307FF30B1070318B20AFF30B2078C
:100CC800FF30A4070318A50AFF30A5072408250448
:100CD800031D6F2E702E522E4208103E84002B08E2
:100CE800303E831780000130C2070318C30A003062
:100CF800C307FF30B1070318B20AFF30B2074B0829
:100D080083120313A700831603134A0883120313DD
:100D1800A60083160313490883120313A50083163C
:100D28000313480883120313A4008316031340080F
:100D380083120313A300831603133F0883120313BC
:100D4800A200831603133E0883120313A10083161F
:100D580003133D0883120313A0000A128A154321C6
:100D68000A128A11831203132308CC002208CB002D
:100D78002108CA002008C900831603133C088312FF
:100D88000313D000831603133B0883120313CF0009
:100D9800831603133A0883120313CE008316031332
:100DA800390883120313CD000A168A15BC210A12CA
:100DB8008A11831203134C0883160313BC00831291
:100DC80003134B0883160313BB00831203134A084B
:100DD80083160313BA0083120313490883160313F7
:100DE800B9004130F3002030F2000030F10000304B
:100DF800F0004B08F7004A08F6004908F5004808D3
:100E0800F4000A168A11E0230A128A11730883165D
:100E18000313CB007208CA007108C9007008C80023
:100E2800FF30A0070318A10AFF30A1070130B70758
:100E38000318B80A0030B8073808803A8312031339
:100E4800D800831603132E08803A8312031358021E
:100E5800031D322F831603132D0837020318352F6D
:100E6800362F452F831603134308803AFF0080303E
:100E78007F02031D412F4B304202031C442F452F94
:100E8800C02D4F3083160313B7000030B800370861
:100E9800103E840083178001103083120313D8009A
:100EA80083160313420883120313D802831603130D
:100EB8003708831203135807F0001030F100831627
:100EC80003134308F3004208F2000A168A15782132
:100ED8000A128A118316031342083702C200430814
:100EE800031C430A3802C3004108031D7C2F7E2FD0
:100EF80001307F2F003083120313D800D90158081E
:100F080083160313B70083120313590883160313B8
:100F1800B80041080319912F922F9E2FFF30C20766
:100F28000318C30AFF30C3074208103E8400410873
:100F3800831780003708B1023808031CB203B202D5
:100F4800831203135108A8005208A900831603133B
:100F58004208103E83120313AA00831603133208B3
:100F680083120313AC00831603133108831203138F
:100F7800AB000A168A1101200A128A11080083168A
:100F880003170A168A152F210A128A11B5000A16A4
:100F98008A1530210A128A11B6000A168A153121DB
:100FA8000A128A11B7000A168A1532210A128A1102
:100FB800B8000A168A1533210A128A11B900BA0133
:100FC800BB01BC01BD0183171030840060300A12D8
:100FD8008A1501200A128A118313E1308400EE3049
:100FE8000A128A1501200A128A1183120313EE01CC
:080FF80083010A128A15852C01
:1010020064008001840A04060319003404060228DD
:10101200CE3083160313D2004C08D3000130D40023
:10102200D501D601DC01DD01D33083120313E800C0
:101032000030E900831603134D0883120313EA00FC
:10104200D230EB000A168A1599210A128A158316E4
:10105200031355084C0783120313ED006D08840037
:10106200831780010800831603173D0883120313B8
:10107200C000831603173C0883120313BF008316B4
:1010820003173B0883120313BE00831603173A08A3
:1010920083120313BD003008C0002F08BF002E08C2
:1010A200BE002D08BD003D08B1003E08B2003F0859
:1010B200B3004008B40017300310B40CB30CB20CE8
:1010C200B10CFF3E031D5D28FF303105B500003035
:1010D2003205B6003508813EBB0036080318013ED2
:1010E200FF3EBC003C08803AFF0080307F02031DB7
:1010F2007C2817303B02031C7F2880288128422944
:1011020083120313BC1B86288728F7283B0AFF009B
:10111200FF30B100FF30B2007F30B3000030B400C6
:101122009728340DB40CB30CB20CB10CFF0B9228FF
:101132003408BA003308B9003208B8003108B700E1
:1011420037083D05B10038083E05B20039083F05B1
:10115200B3003A084005B4003408330432043104C1
:10116200031DB428B528B62880283D08B1003E08E2
:10117200B2003F08B3004008B4001F300310B40CA3
:10118200B30CB20CB10CFF3E031DBF28340833046C
:10119200320431040319CE28CF28E6283708BD07C8
:1011A200380803110318013E0319D828BE0739086D
:1011B20003110318013E0319DF28BF073A08031180
:1011C2000318013E0319E628C0073709B1003809A0
:1011D200B2003909B3003A09B4003108BD0532083A
:1011E200BE053308BF053408C0053A293D08B100E1
:1011F2003E08B2003F08B3004008B4001F3003109D
:10120200B40CB30CB20CB10CFF3E031D0029340820
:10121200330432043104031D0F2910291929003027
:10122200C0000030BF000030BE000030BD003A29CF
:101232003D08B1003E08B2003F08B3004008B400C8
:1012420001300310B10DB20DB30DB40DFF3E031DFD
:101252002229340833043204310403193129322992
:101262003A29BF30C0008030BF000030BE000030DD
:10127200BD004008B0003F08AF003E08AE003D0888
:10128200AD000800831203132308A8008030A805CC
:101292002308F9007907AE00A21F502951295229CB
:1012A2002E142E0803195629572966292E0A031DC2
:1012B2005B295C2964290030A3000030A2000030C1
:1012C200A1000030A000A2176E290030A300003058
:1012D200A2000030A1000030A00027088039A80633
:1012E2002708F9007907AD00A61F782979297A29FC
:1012F2002D142D0803197E297F298E292D0A031DFD
:10130200832984298C290030A7000030A6000030F0
:10131200A5000030A400A61796290030A7000030CF
:10132200A6000030A5000030A4002D0803199A2958
:101332009B29A0292E08031D9F29A029A929003035
:10134200A3000030A2000030A1000030A000842CD5
:101352002008F00026080A168A1505220A128A15A4
:10136200710883120313B4007008B3003308F90044
:10137200FA01FB01FC017C08AC007B08AB007A0897
:10138200AA007908A9003408F900FA01FB01FC015E
:101392007C08B2007B08B1007A08B0007908AF007F
:1013A2002108F00025080A168A1505220A128A1554
:1013B200710883120313B4007008B3003308F900F4
:1013C200FA01FB01FC017908A9077A080311031845
:1013D200013E0319ED29AA077B0803110318013EF8
:1013E2000319F429AB077C0803110318013E031902
:1013F200FB29AC073408F900FA01FB01FC0179086A
:10140200AF077A0803110318013E0319092AB0072E
:101412007B0803110318013E0319102AB1077C0847
:1014220003110318013E0319172AB2072208F0001C
:1014320024080A168A1505220A128A1571088312CF
:101442000313B4007008B3003308F900FA01FB017A
:10145200FC017908A9077A0803110318013E031950
:10146200332AAA077B0803110318013E03193A2AFB
:10147200AB077C0803110318013E0319412AAC078C
:101482003408F900FA01FB01FC017908AF077A0878
:1014920003110318013E03194F2AB0077B080311F9
:1014A2000318013E0319562AB1077C0803110318D9
:1014B200013E03195D2AB2070830F9000310A90D95
:1014C200AA0DAB0DAC0DF90B5F2A2108F000240820
:1014D2000A168A1505220A128A1571088312031345
:1014E200B4007008B3003308F9003408FA00FB01B5
:1014F200FC017908A9077A0803110318013E0319B0
:10150200832AAA077B0803110318013E03198A2ABA
:10151200AB077C0803110318013E0319912AAC079B
:101522002008F00025080A168A1505220A128A15D3
:10153200710883120313B4007008B3003308F90072
:101542003408FA00FB01FC017908A9077A080311A3
:101552000318013E0319AE2AAA077B0803110318D8
:10156200013E0319B52AAB077C0803110318013E9B
:101572000319BC2AAC070830F9000310A90DAA0D03
:10158200AB0DAC0DF90BBE2A2008F00024080A1698
:101592008A1505220A128A15710883120313B400F0
:1015A2007008B3003308F9003408FA00FB01FC01AB
:1015B2007908A9077A0803110318013E0319E22AE0
:1015C200AA077B0803110318013E0319E92AAB0796
:1015D2007C0803110318013E0319F02AAC07210805
:1015E200F00026080A168A1505220A128A157108C1
:1015F20083120313B4007008B3003308F9003408EF
:10160200FA00FB01FC017908AF077A0803110318FD
:10161200013E03190D2BB0077B0803110318013E8D
:101622000319142BB1077C0803110318013E031997
:101632001B2BB2072208F00025080A168A1505227C
:101642000A128A15710883120313B4007008B300DA
:101652003308F9003408FA00FB01FC017908AF07EE
:101662007A0803110318013E0319382BB0077B08CF
:1016720003110318013E03193F2BB1077C08031124
:101682000318013E0319462BB2072208F000260870
:101692000A168A1505220A128A1571088312031383
:1016A200B4007008B3003308F9003408FA00FB01F3
:1016B200FC0108300310F90DFA0DFB0DFC0DFF3E85
:1016C200031D5B2B7908AF077A0803110318013E4B
:1016D20003196C2BB0077B0803110318013E031991
:1016E200732BB1077C0803110318013E03197A2BEF
:1016F200B2072908F9002A08FA002B08FB002C0877
:10170200FC0018300310FC0CFB0CFA0CF90CFF3E29
:10171200031D832B7908AF077A0803110318013ED2
:101722000319942BB0077B0803110318013E031918
:101732009B2BB1077C0803110318013E0319A22B4E
:10174200B2070830F9000310A90DAA0DAB0DAC0DBC
:10175200F90BA42B2E082D07F900FA01FA0D7908CE
:10176200823EB3007A080318013EFF3EB400D62B36
:101772000130F9000310AF0DB00DB10DB20DF90B30
:10178200BB2BAC1FC52BC62BC72B2F140130F90066
:101792000310A90DAA0DAB0DAC0DF90BC92BFF302F
:1017A200B3070318B40AFF30B407B11FD92BDA2BE1
:1017B200B92BAD01AC1FDE2BDF2BFB2BFF30290534
:1017C200F900FF302A05FA00FF302B05FB007F30BD
:1017D2002C05FC007C087B047A0479040319F22BA3
:1017E200F32BF62B0130AD00FB2B2F1CF92BFA2B20
:1017F200FB2BF32B2D080319FF2B002C312C01306E
:10180200AF07003003180130B00700300318013071
:10181200B107003003180130B207321C112C122C10
:10182200312C2F08F9003008FA003108FB00320889
:10183200FC000130FD007C0DFC0CFB0CFA0CF90CD9
:10184200FD0B1C2C7C08B2007B08B1007A08B000AA
:101852007908AF000130B3070318B40A0030B407A7
:101862003408803AFF0080307F02031D3A2CFF309B
:101872003302031C3D2C3E2C492C7F308312031370
:10188200B2008030B1000030B0000030AF007A2CDE
:10189200831203133408803AFF0080307F02031D55
:1018A200542C013033020318572C582C642C00306E
:1018B20083120313B2000030B1000030B0000030D8
:1018C200AF00A8017A2C831203133308AE00FF3055
:1018D200AF05FF30B0057F30B1050030B2052E1CD8
:1018E200732C742C752CB1172E08F9000310790C87
:1018F200B2002808B2043208A3003108A20030085E
:10190200A1002F08A0000800A1308400831603174D
:10191200350883178000840A36088000840A370855
:101922008000840A38088000840A39088000A701F0
:101932000030AF000030AE000030AD000030AC002F
:101942000030B3000030B2000030B1000030B0000F
:101952000030AB000030AA000030A9000030A8001F
:10196200A60188018901831603138701763084005A
:101972008316031721088000840A22088000840A43
:1019820023088000840A24088000840A2508800035
:101992000A168A15EC250A128A150A168A153F219B
:1019A2000A128A150A168A154E210A128A158316F8
:1019B2000317B4002A303406031DE02CE12C082D55
:1019C2000030AF000030AE000030AD000030AC009F
:1019D2000030B3000030B2000030B1000030B0007F
:1019E2000030AB000030AA000030A9000030A8008F
:1019F200A701A60100300A168A153A230A128A158F
:101A020001300A168A153A230A128A15D32C30306D
:101A12003402031C0D2D0E2DED2D3A303402031825
:101A2200132D142DED2D34080A168A151C240A12C2
:101A32008A15831603172608031D202D212D872DB5
:101A42003408D03EF000FF3003180030F100F201FC
:101A5200F30100300A168A1592260A128A157308B3
:101A620083120313B8007208B7007108B600700839
:101A7200B5004130A3002030A2000030A1000030A8
:101A8200A000831603172F0883120313A7008316DF
:101A920003172E0883120313A600831603172D08BB
:101AA20083120313A500831603172C088312031352
:101AB200A4000A128A1543210A128A1583120313FB
:101AC2002308BC002208BB002108BA002008B90084
:101AD2000A168A11B0250A128A15831203133808CE
:101AE20083160317AF0083120313370883160317F5
:101AF200AE0083120313360883160317AD00831258
:101B02000313350883160317AC00D32C3408D03ED8
:101B1200F000FF3003180030F100F201F301003051
:101B22000A168A1592260A128A157308831203135B
:101B3200B8007208B7007108B6007008B5004130ED
:101B4200A3002030A2000030A1000030A0008316C4
:101B52000317330883120313A700831603173208EF
:101B620083120313A600831603173108831203138B
:101B7200A50083160317300883120313A4000A1268
:101B82008A1543210A128A15831203132308BC0003
:101B92002208BB002108BA002008B9000A168A11DF
:101BA200B0250A128A158312031338088316031705
:101BB200B30083120313370883160317B20083128C
:101BC2000313360883160317B10083120313350873
:101BD20083160317B000D32C413034060319F22DBB
:101BE200F32D052E423034060319F82DF92D052E5A
:101BF200433034060319FE2DFF2D052E44303406E2
:101C0200031D042E052E3A2E0130A6002C2E2B3059
:101C1200A7002B300A168A151C240A128A15D32C07
:101C22002D30A7002D300A168A151C240A128A1597
:101C3200D32C2A30A7002A300A168A151C240A122D
:101C42008A15D32C2F30A7002F300A168A151C2490
:101C52000A128A15D32C3408413A0319082E033A82
:101C62000319112E013A03191A2E073A0319232ECA
:101C7200D32C23303406031D3F2E402ED32CA42F09
:101C8200330883120313B800831603173208831232
:101C92000313B70083160317310883120313B60028
:101CA20083160317300883120313B5008316031734
:101CB2002F0883120313BC00831603172E08831206
:101CC2000313BB00831603172D0883120313BA00F4
:101CD200831603172C0883120313B9000A168A11FC
:101CE200B0250A128A1583120313380883160317C4
:101CF200AB0083120313370883160317AA0083125B
:101D02000313360883160317A90083120313350839
:101D120083160317A800B22F330883120313CC00D3
:101D220083160317320883120313CB00831603179B
:101D3200310883120313CA00831603173008831273
:101D42000313C900831603172F0883120313D0004D
:101D5200831603172E0883120313CF00831603176B
:101D62002D0883120313CE00831603172C08831247
:101D72000313CD000A168A15BC210A128A15831292
:101D820003134C0883160317AB00831203134B088B
:101D920083160317AA00831203134A088316031734
:101DA200A90083120313490883160317A800B22F50
:101DB200330883120313A300831603173208831216
:101DC2000313A20083160317310883120313A10021
:101DD20083160317300883120313A0008316031718
:101DE2002F0883120313A700831603172E088312EA
:101DF2000313A600831603172D0883120313A500ED
:101E0200831603172C0883120313A4000A128A15DF
:101E120043210A128A158312031323088316031718
:101E2200AB0083120313220883160317AA0083123E
:101E32000313210883160317A90083120313200832
:101E420083160317A800B22F3308F3003208F200FA
:101E52003108F1003008F0000030F7000030F600E1
:101E62000030F5000030F4000A168A1599220A1291
:101E72008A1503183D2F3E2F602F83160317330850
:101E8200F3003208F2003108F1003008F0002F08A8
:101E9200F7002E08F6002D08F5002C08F4000A16AB
:101EA2008A11E0230A128A15730883160317AB00FE
:101EB2007208AA007108A9007008A800B22F0030A9
:101EC2000A168A153A230A128A1501300A168A1549
:101ED2003A230A128A150130F6008030F7000A16FA
:101EE2008A1557220A128A15103083160313E0004E
:101EF2003930DF000D30DE00DE0B7D2FDF0B7D2F52
:101F0200E00B7D2F00300A168A153A230A128A1531
:101F120001300A168A153A230A128A1500308316EE
:101F22000317AF000030AE000030AD000030AC004F
:101F32000030B3000030B2000030B1000030B00019
:101F4200A701A601D32C27082A3A0319D92E013A50
:101F52000319412E063A03198D2E023A0319252F31
:101F6200B22F00300A168A153A230A128A15013056
:101F72000A168A153A230A128A1590308316031319
:101F8200CC000C30CD00831603172B0883160313E5
:101F9200D100831603172A0883160313D000831671
:101FA2000317290883160313CF0083160317280883
:101FB20083160313CE000A128A1509200A128A1503
:101FC2009030F6000130F7000A168A1557220A12DD
:101FD2008A15831603172B08AF002A08AE002908BA
:101FE200AD002808AC000030B3000030B200003071
:0E1FF200B1000030B000A12F0A128A110028A1
:1020020083120313AC1F062807280928AB01AC0171
:10201200AD01AE0123282030F0000030F100831220
:1020220003132808F2002908F3000A168A15AE24C1
:102032000A168A11013083120313AD070318AE0A80
:102042000030AE072E08803AFD002C08803A7D024F
:10205200031D2D282B082D02031C302831280C28A3
:10206200831203132A08A0002808A1002908A2004D
:102072000A168A152C220A168A11080083120313E3
:102082005E0884008313000884000A168A150A2059
:102092000A168A11253A031D4F28502817295E086F
:1020A20084000130800783160313EA01EB0100303C
:1020B20083120313EE00FF3083160313EC00FF308C
:1020C200ED00831203135E088400000884000A16E0
:1020D2008A150A200A168A112E3A031D71287228BF
:1020E20085285E088400013080075E08F6005F08DC
:1020F200F7000A168A15E7220A168A11770883164C
:102102000313ED007608EC0083125E08840083134B
:102112000008E700670884000A168A150A200A16D2
:102122008A11E6009C280130E707A7286C30E600F8
:10213200A728E601A72866084C3A031994282A3AE8
:10214200031997280A3A031994289A2867088400E1
:102152000A168A150A200A168A11663A031DB2283F
:10216200B3280F29DC285F0884000008FF00043030
:1021720080077F0884000008E200840A0008E30068
:10218200840A0008E400840A0008E500E4285F08E5
:1021920084000008FF00043080077F0884000008E4
:1021A200E200840A0008E300840A0008E400840ACA
:1021B2000008E500E42866084C3A0319C828203ACA
:1021C2000319B428E4285E0884006708013E8000F1
:1021D20004295C08D1005D08D2006508D6006408B5
:1021E200D5006308D4006208D300670884000A1689
:1021F2008A150A200A168A11D7000A168A11312175
:102202000A168A113029670884000A168A150A20DC
:102212000A168A11663A0319EA280F298312031350
:102222005E08840001308313800730295E08840031
:10223200000884000A168A150A200A168A11E0008C
:10224200E1016008F0006108F1005C08F2005D083D
:10225200F3000A168A15AE240A168A110F290800FD
:1022620083160313C1018312031356088316031343
:10227200C70083120313550883160313C600831283
:102282000313540883160313C50083120313530860
:1022920083160313C400470883120313B80083167E
:1022A2000313460883120313B7008316031345086A
:1022B20083120313B6008316031344088312031315
:1022C200B5000030BC000030BB000030BA00003066
:1022D200B9000A168A1548250A168A1103187229A6
:1022E20073298E29013083160313C1004708F300B6
:1022F2004608F2004508F1004408F0000A168A1563
:1023020034210A168A11730883160313C700720850
:10231200C6007108C5007008C40083160313C20109
:10232200C3016B08B2006A08B100410803199A2977
:102332009B29AB294108031D9F29A029A5292B30E0
:10234200A6000030A700A9292D30A6000030A70062
:102352002608C1004708F3004608F2004508F100CC
:102362004408F0000A168A158F230A168A11700390
:102372007104031DBD29BE29032A831603134108D4
:102382000319C429C529D5294108831203179000CE
:10239200FF3083160313B1070318B20AFF30B207E6
:1023A2000130C2000030C3004208103EF00011307C
:1023B200F1000A168A155F210A168A11FD3083166A
:1023C2000313B1070318B20AFF30B20783120313D3
:1023D2005108A8005208A9001030AA00831603135E
:1023E200320883120313AC008316031331088312DD
:1023F2000313AB000A168A1101200A168A110A1267
:102402008A11C22F831603134708F3004608F2000D
:102412004508F1004408F0000A168A158F230A16AF
:102422008A1170087104031D172A1A2A0A128A11C6
:102432008E288316031341080319202A212A312AE0
:102442004108831203179000FF3083160313B1076C
:102452000318B20AFF30B2070130C2000030C300D5
:102462004208103EF0001530F1000A168A155F216D
:102472000A168A11DF298312031306108614061521
:102482008615061A452A462A5B2A0230F2000430D3
:10249200F100BA30F000F00B4C2AF10B4C2AF20B8F
:1024A2004C2A000083120313061E582A592A532A63
:1024B2003130DF2B861A5E2A5F2A742A0230F2003C
:1024C2000430F100BA30F000F00B652AF10B652AF6
:1024D200F20B652A000083120313861E712A722AE8
:1024E2006C2A3230DF2B061B772A782A8D2A02309B
:1024F200F2000430F100BA30F000F00B7E2AF10B4A
:102502007E2AF20B7E2A000083120313061F8A2AF8
:102512008B2A852A3330DF2B861B902A912AA62A02
:102522000230F2000430F100BA30F000F00B972ACA
:10253200F10B972AF20B972A000083120313861FCE
:10254200A32AA42A9E2A4130DF2B061486100615E0
:102552008615061AAD2AAE2AC32A0230F2000430CA
:10256200F100BA30F000F00BB42AF10BB42AF20BEE
:10257200B42A000083120313061EC02AC12ABB2AF2
:102582003430DF2B861AC62AC72ADC2A0230F20030
:102592000430F100BA30F000F00BCD2AF10BCD2A55
:1025A200F20BCD2A000083120313861ED92ADA2ADF
:1025B200D42A3530DF2B061BDF2AE02AF52A023027
:1025C200F2000430F100BA30F000F00BE62AF10B11
:1025D200E62AF20BE62A000083120313061FF22AF0
:1025E200F32AED2A3630DF2B861BF82AF92A0E2B26
:1025F2000230F2000430F100BA30F000F00BFF2A92
:10260200F10BFF2AF20BFF2A000083120313861F2D
:102612000B2B0C2B062B4230DF2B061486140611D3
:102622008615061A152B162B2B2B0230F2000430BE
:10263200F100BA30F000F00B1C2BF10B1C2BF20B4B
:102642001C2B000083120313061E282B292B232B7D
:102652003730DF2B861A2E2B2F2B442B0230F20021
:102662000430F100BA30F000F00B352BF10B352BB2
:10267200F20B352B000083120313861E412B422BD3
:102682003C2B3830DF2B061B472B482B5D2B0230AF
:10269200F2000430F100BA30F000F00B4E2BF10BD7
:1026A2004E2BF20B4E2B000083120313061F5A2BE4
:1026B2005B2B552B3930DF2B861B602B612B762B46
:1026C2000230F2000430F100BA30F000F00B672B58
:1026D200F10B672BF20B672B000083120313861F8B
:1026E200732B742B6E2B4330DF2B061486140615C6
:1026F2008611061A7D2B7E2B932B0230F2000430BA
:10270200F100BA30F000F00B842BF10B842BF20BAA
:10271200842B000083120313061E902B912B8B2B0C
:102722002A30DF2B861A962B972BAC2B0230F20025
:102732000430F100BA30F000F00B9D2BF10B9D2B11
:10274200F20B9D2B000083120313861EA92BAA2BCA
:10275200A42B3030DF2B061BAF2BB02BC52B023046
:10276200F2000430F100BA30F000F00BB62BF10B9E
:10277200B62BF20BB62B000083120313061FC22BDB
:10278200C32BBD2B2330DF2B861BC82BC92BDE2B83
:102792000230F2000430F100BA30F000F00BCF2B1F
:1027A200F10BCF2BF20BCF2B000083120313861FEA
:1027B200DB2BDC2BD62B4430DF2B6E300800770866
:1027C20083120313A4008030A4057708F800780769
:1027D200AB00F61FED2BEE2BEF2B2B142B0803195E
:1027E200F32BF42B042C2B0A031DF82BF92B012CB1
:1027F2000030F7000030F6000030F5000030F40041
:10280200F617F7010C2C0030F7000030F60000300C
:10281200F5000030F40073088039A4067308F8004C
:102822007807AC00F21F162C172C182C2C142C082D
:1028320003191C2C1D2C2D2C2C0A031D212C222C9F
:102842002A2C0030F3000030F2000030F10000309A
:10285200F000F217F301352C0030F3000030F200E3
:102862000030F1000030F00073087204710470044B
:10287200031D3C2C3D2C542C0030F7000030F60098
:102882000030F5000030F4008030F6047F30F704A9
:102892002408F7047708F3007608F2007508F100BF
:1028A2007408F000AF2D2B08031D582C592C622CF4
:1028B2000030F3000030F2000030F1000030F00090
:1028C200AF2D2B08F800F9017908FB002C087802DB
:1028D200FA00031CFB037A087F3EA5007B0803185D
:1028E200013E003EA6007708A3007608A200750804
:1028F200A1007408A0000030F7000030F60000309C
:10290200F5000030F4000030AA000030A9000030C9
:10291200A8000030A700AC01DC2C2C080319922C73
:10292200932CB32C0130F8000310A00DA10DA20DC1
:10293200A30DF80B952C0130F8000310F40DF50DE2
:10294200F60DF70DF80B9E2CAA1FA82CA92CAA2C69
:1029520074140130F8000310A70DA80DA90DAA0DDB
:10296200F80BAC2C73082302031DC12C720822023F
:10297200031DC12C71082102031DC12C7008200205
:10298200031CC42CC52CDA2C2A177008A00271086B
:10299200031C710FCD2CCE2CA1027208031C720FE6
:1029A200D32CD42CA2027308031C730FD92CDA2C5B
:1029B200A3020130AC071A302C02031CE12CE22CDA
:1029C2008E2C23082204210420040319E92CEA2C6A
:1029D200092D2714092D0130F8000310F40DF50D0F
:1029E200F60DF70DF80BEE2CAA1FF82CF92CFA2C89
:1029F20074140130F8000310A70DA80DA90DAA0D3B
:102A0200F80BFC2CFF30A5070318A60AFF30A60717
:102A1200F61F0C2D0D2DEC2CAC01AA1F112D122D21
:102A22002E2DFF302705F800FF302805F900FF3072
:102A32002905FA007F302A05FB007B087A04790415
:102A420078040319252D262D292D0130AC002E2DB9
:102A5200741C2C2D2D2D2E2D262D2C080319322DD4
:102A6200332D642D0130F407003003180130F507CF
:102A7200003003180130F607003003180130F70761
:102A8200771C442D452D642D7408F8007508F90053
:102A92007608FA007708FB000130FC007B0DFB0C86
:102AA200FA0CF90CF80CFC0B4F2D7B08F7007A0896
:102AB200F6007908F5007808F4000130A50703183C
:102AC200A60A0030A6072608803AFF0080307F025F
:102AD200031D6D2DFF302502031C702D712D7F2DDE
:102AE200FF3083120313A5000030A6000030F70068
:102AF2000030F6000030F5000030F40083120313BA
:102B02002608803AFF0080307F02031D8A2D0130A3
:102B1200250203188D2D8E2D9B2D83120313A501E3
:102B2200A6010030F7000030F6000030F50000305A
:102B3200F400A401831203132508AB002B1CA22D61
:102B4200A32DA52DF617A72D7F30F6052B08F8002B
:102B52000310780CF7002408F7044B2C08008312AA
:102B620003133808C5008030C5053808BD003D078D
:102B7200C700B71FBD2DBE2DBF2D4714470803192F
:102B8200C32DC42DD42D470A031DC82DC92DD12D07
:102B92000030B8000030B7000030B6000030B50099
:102BA200B717B801DC2D0030B8000030B700003094
:102BB200B6000030B5003C08C6008030C6054608A5
:102BC20045060319E52DE62DE72D45173C08BD0006
:102BD2003D07C600BB1FEE2DEF2DF02D4614460813
:102BE2000319F42DF52D052E460A031DF92DFA2D94
:102BF200022E0030BC000030BB000030BA000030B2
:102C0200B900BB17BC010D2E0030BC000030BB0068
:102C12000030BA000030B900470846020318122EED
:102C2200132E372E451F162E172E192E8030C5064D
:102C32004708C8004608C7004808C6003508C8004B
:102C42003908B5004808B9003608C8003A08B60085
:102C52004808BA003708C8003B08B7004808BB005C
:102C62003808C8003C08B8004808BC00C80146083B
:102C7200BD00BE013E08C00047083D02BF00031C64
:102C8200C0034008803AFF0080307F02031D4B2EB4
:102C92001A303F02031C4E2E4F2E842E8312031332
:102CA2003808370436043504031D582E5A2E0130D5
:102CB2005B2E0030C8000030B8000030B700003092
:102CC200B6000030B5004608C7008C2E481C6A2E9C
:102CD2006B2E722E4808BD0003103D0C0138C8004F
:102CE200742E0310C80C351C772E782E792EC81737
:102CF2000130BD00380DB80CB70CB60CB50CBD0BCD
:102D02007B2E0130C7078312031346084702031CB8
:102D12008B2E8C2E672E451B8F2E902ED72E47087A
:102D2200031D942E952E9E2E0030B8000030B70061
:102D32000030B6000030B500FF2F3908B5073A0859
:102D420003110318013E0319A72EB6073B0803110E
:102D52000318013E0319AE2EB7073C0803110318EE
:102D6200013E0319B52EB807381CB82EB92E8B2F89
:102D7200481CBC2EBD2EC42E4808BD0003103D0CBD
:102D82000138C800C62E0310C80C351CC92ECA2E25
:102D9200CB2EC8170130BD00380DB80CB70CB60CDD
:102DA200B50CBD0BCD2E0130C7078B2F3808803AEA
:102DB200FF003C08803A7F02031DE92E3B083702E0
:102DC200031DE92E3A083602031DE92E39083502A1
:102DD2000318EC2EED2E442FFF30BD00FF30BE0055
:102DE200FF30BF00FF30C0003908C1003A08C200FE
:102DF2003B08C3003C08C4003508C1023608031C66
:102E0200360F042F052FC2023708031C370F0A2F73
:102E12000B2FC3023808031C380F102F112FC402C6
:102E22004108BD0742080318420F182F192FBE0789
:102E320043080318430F1E2F1F2FBF074408031810
:102E4200440AC0074008B8003F08B7003E08B60071
:102E52003D08B5008030C5064803FF3AC80048085F
:102E6200031D342F352F522F0130B50700300318C0
:102E72000130B607003003180130B70700300318DD
:102E82000130B807522F3908B5023A08031C3A0F2D
:102E9200B6023B08031C3B0FB7023C08031C3C0F65
:102EA200B8023808370436043504031D592F5A2F47
:102EB200872F4808031D5E2F5F2F872F0030B80031
:102EC2000030B7000030B6000030B500FF2F0130EF
:102ED200BD000310B50DB60DB70DB80DBD0B6A2FB1
:102EE200C81F742F752F762F3514481C792F7A2F0F
:102EF2007E2F0314480DC800802F0310C80D470809
:102F02000319842F852F872F0130C702B71F8A2FFD
:102F12008B2F682FC601C81F8F2F902F9E2F480816
:102F22007F390319952F962F992F0130C6009E2FB6
:102F3200351C9C2F9D2F9E2F962F46080319A22FDA
:102F4200A32FD52F0130B507003003180130B60783
:102F5200003003180130B707003003180130B807FA
:102F6200381CB42FB52FD52F3508BD003608BE004A
:102F72003708BF003808C0000130C100400DC00C46
:102F8200BF0CBE0CBD0CC10BBF2F4008B8003F08E0
:102F9200B7003E08B6003D08B500470A0319D22F14
:102FA200D32FD52F0130C707470A0319D92FDA2F9C
:102FB200DF2F4708031DDE2FDF2FED2F0030B80073
:102FC2000030B7000030B6000030B5004708031DDE
:102FD200EB2FEC2FED2FC501471CF02FF12FF32F14
:102FE200B717F52F7F30B7054708BD0003103D0C1A
:102FF200B800C51FFD2FFE2FFF2FB8170800FF1BBB
:103002000A2883137F1883170008840A0319FF0A0A
:10301200080018308A000408840A82070034453404
:10302200723472346F3472342034443469347634F6
:103032003034003425342E3432346634003469346A
:0E3042006E34663400346E3461346E34003403
:10325E00073400341A342C343E347308720471046B
:10326E00700403193B293C293E298030F3060800DF
:10327E00831203138601F030831603138600831620
:10328E00031789017F3083160313810508006E3002
:10329E00F30057290A168A113C220A168A15F300E2
:1032AE006E30730603195C295D29512973080800D5
:1032BE007008F2000130F107FF30710784000A1622
:1032CE008A150A200A168A15FF007208F20A84006F
:1032DE007F08831780000008031D7629772961294E
:1032EE0008007108F6007008F5008A297608840037
:1032FE0083170008F4000130F6077508840074087F
:10330E0080000130F5070130F2020030031CF30398
:10331E00F302720A031D9729730A031D9729982930
:10332E007D290800831203136A08EC00AB29680894
:10333E00DC006908DD006C30DE006B08DF000A1669
:10334E008A113F200A168A15831203136C08840013
:10335E000A168A150A200A168A15003A031DB8297C
:10336E00B9299E29E801E901080080308312031370
:10337E00CC065008B8004F08B7004E08B6004D08EE
:10338E00B5004C08BC004B08BB004A08BA004908FF
:10339E00B9000A168A11B0250A168A15831203136C
:1033AE003808CC003708CB003608CA003508C900EB
:1033BE000800F401F501701CE529E629EC297208D4
:1033CE00F4070318F50A7308F50701300310F20D20
:1033DE00F30DFF3E031DED2901300310F10CF00C2F
:1033EE00FF3E031DF42970087104031DFF29002AF6
:1033FE00E2297508F1007408F0000800F800F401E5
:10340E00F5017008F200F3017208F6007308F70078
:10341E00781C122A132A192A7608F4070318F50ABB
:10342E007708F50701300310F60DF70DFF3E031D6B
:10343E001A2A0310F80C7808031D262A272A0F2AA9
:10344E007508F1007408F000080083120313A6013A
:10345E00A701492A2508A300A4012308F000240887
:10346E00F1002108F2002208F3000A168A15AE2494
:10347E000A168A15013083120313A6070318A70A2A
:10348E000030A70726082007A3002308840083170F
:10349E000008A5002508031D552A562A312A0800C2
:1034AE00FB01FC017C2A7B087607F9007708F800FF
:1034BE000318F80AFB1F642AF8037808FA007A0842
:1034CE0083120313FF00790884000A168A15002060
:1034DE000A168A150A168A151C240A168A15013030
:1034EE00FB070318FC0A0030FC077B087607F9007F
:1034FE007708F8000318F80AFB1F862AF8037808E5
:10350E00FA007A0883120313FF00790884000A1662
:10351E008A1500200A168A15003A031D972A982A42
:10352E005A2A080000307005F80000307105F900C5
:10353E0080307205FA007F307305FB007B087A0439
:10354E0079047804031DAC2AAD2AB52A0030F300A5
:10355E000030F2000030F1000030F0000030740551
:10356E00F80000307505F90080307605FA007F30DE
:10357E007705FB007B087A0479047804031DC82ABA
:10358E00C92AD12A0030F7000030F6000030F500CD
:10359E000030F40077087306031DDF2A76087206E2
:1035AE00031DDF2A75087106031DDF2A74087006D5
:1035BE000319E22AE32AE52A0310E62A0314080077
:1035CE00F901FA01760884008313000884000A16B4
:1035DE008A150A200A168A152A3A031DF72AF82A8E
:1035EE00242B7608840001308007770884000008B9
:1035FE00FF00023080077F0884000008F900840A6B
:10360E000008FA00352B7A08F1007908F0000A302C
:10361E00F2000030F3000A168A15E0210A168A1508
:10362E0078087007F9000030031801307107FA00AE
:10363E007608840001308313800776088400000822
:10364E0084000A168A150A200A168A15D03EF8003A
:10365E000A307802031C342B352B0A2B7A08F7001C
:10366E007908F6000800F50083160313610884003C
:10367E008317621C83130130F30063080739013E80
:10368E004A2B0310F30DFF3E031D482B7308FF3A20
:10369E00800575080A168A1546270A168A15831696
:1036AE000313610884008317621C83130130F30037
:1036BE00630CF400F40C740C0739013E682B0310F4
:1036CE00F30DFF3E031D662B730880040630F400D5
:1036DE003030F300F30B712BF40B712B00008316BB
:1036EE000313610884008317621C83130130F300F7
:1036FE00630CF400F40C740C0739013E882B031094
:10370E00F30DFF3E031D862B7308FF3A800508005C
:10371E0083160313690883120313A500831603137C
:10372E00680883120313A400831603136708831219
:10373E000313A30083160313660883120313A20058
:10374E007308A5007208A4007108A3007008A200F7
:10375E002208F4002308F5002408F6002508F700D7
:10376E0017300310F70CF60CF50CF40CFF3E031D8E
:10377E00B82BFF307405A00000307505A10020089D
:10378E002104031DCB2BCC2BEF2B2208F400230896
:10379E00F5002408F6002508F70001300310F40D9B
:1037AE00F50DF60DF70DFF3E031DD52B77087604AC
:1037BE0075047404031DE42BE52BEA2B0230F00094
:1037CE000030F1001B2C0330F0000030F1001B2CF8
:1037DE00200A2104031DF42BF52B172C2208F400CC
:1037EE002308F5002408F6002508F7000930031019
:1037FE00F40DF50DF60DF70DFF3E031DFE2B7708AC
:10380E0076047504740403190D2C0F2C0130102C42
:10381E000030F800F9017808F0007908F1001B2C4F
:10382E000430F0000030F1000800F5008316031399
:10383E00610884008317621C83130130F300630850
:10384E000739013E2C2C0310F30DFF3E031D2A2CCD
:10385E00730880047508F30004300310F30CFF3E68
:10386E00031D342C73080F390A168A1546270A16BB
:10387E008A1583160313610884008317621C831351
:10388E000130F300630CF400F40C740C0739013EA4
:10389E00522C0310F30DFF3E031D502C73088004B1
:1038AE000D30F300F30B592C8316031361088400BB
:1038BE008317621C83130130F300630CF400F40CC5
:1038CE00740C0739013E6D2C0310F30DFF3E031DE2
:1038DE006B2C7308FF3A800575080F390A168A1586
:1038EE0046270A168A158316031361088400831768
:1038FE00621C83130130F300630CF400F40C740C9F
:10390E000739013E8C2C0310F30DFF3E031D8A2C4C
:10391E00730880040D30F300F30B932C83160313FE
:10392E00610884008317621C83130130F300630C5B
:10393E00F400F40C740C0739013EA72C0310F30DA0
:10394E00FF3E031DA52C7308FF3A80050800720880
:10395E0073040319B32CB42CBA2C72087304031D10
:10396E00B92CBA2CC12C70080A128A1104200A161E
:10397E008A15472D7208093EF40073080318013E9C
:10398E00003EF500740884008317751C831300082D
:10399E00F600840A0008F700760877040319D82C7D
:1039AE00D92C0B2D7208093EF40073080318013E42
:1039BE00003EF500740884008317751C83130008FD
:1039CE00F600840A0008F7007208023EF800730839
:1039DE000318013E003EF900780884008317791C15
:1039EE0083130008FA00840A0008FB007B08803A63
:1039FE00FC007708803A7C02031D072D76087A02B8
:103A0E0003180A2D0B2D472D720884008317731C83
:103A1E0083130008F400840A0008F5007208023EC1
:103A2E00F60073080318013E003EF7007608840086
:103A3E008317771C831300087407F9007508F800C4
:103A4E000318F80A801F2C2DF8037808FA0079085D
:103A5E00840083177A1C8313700880007208023E5C
:103A6E00F40073080318013E003EF500740884004C
:103A7E008317751C831301308007840A0318800A8C
:103A8E0008000030831203133505BD0000303605E3
:103A9E00BE0080303705BF007F303805C0004008BB
:103AAE003F043E043D04031D5D2D5E2D662D00304A
:103ABE00B8000030B7000030B6000030B50000305E
:103ACE003905BD0000303A05BE0080303B05BF0011
:103ADE007F303C05C00040083F043E043D04031DFA
:103AEE00792D7A2D822D0030BC000030BB000030C5
:103AFE00BA000030B900B81F852D862DAA2D0030D2
:103B0E00BD000030BE000030BF008030C000350860
:103B1E00BD023608031C360F952D962DBE023708B2
:103B2E00031C370F9B2D9C2DBF023808031C380F2A
:103B3E00A12DA22DC0024008B8003F08B7003E08D4
:103B4E00B6003D08B500BC1FAD2DAE2DD22D0030F8
:103B5E00BD000030BE000030BF008030C00039080C
:103B6E00BD023A08031C3A0FBD2DBE2DBE023B0806
:103B7E00031C3B0FC32DC42DBF023C08031C3C0F7E
:103B8E00C92DCA2DC0024008BC003F08BB003E082C
:103B9E00BA003D08B9008030B8068030BC063C083B
:103BAE003802031DE42D3B083702031DE42D3A08AD
:103BBE003602031DE42D390835020318E72DE82DD2
:103BCE00EA2D0310EB2D03140800E1308400760873
:103BDE0083138000840A77088000840A78088000A6
:103BEE00840A79088000840A7A08800000308316DF
:103BFE0003136206031D052E05306106031D082EF4
:103C0E00092E0B2E8501222E00306206031D112E69
:103C1E0006306106031D142E152E172E8601222E38
:103C2E0000306206031D1D2E07306106031D202E77
:103C3E00212E912E87011A30FC00F830FB00FB0B71
:103C4E00262EFC0B262E000003300A168A153A2368
:103C5E000A168A150730FC007D30FB00FB0B352E53
:103C6E00FC0B352E03300A168A153A230A168A15CE
:103C7E001530FC00C630FB00FB0B432EFC0B432E15
:103C8E00000003300A168A153A230A168A150230E6
:103C9E000A168A153A230A168A1502300A168A154A
:103CAE003A230A168A1508300A168A153A230A1676
:103CBE008A1500300A168A153A230A168A15063016
:103CCE000A168A153A230A168A150830FD007D1544
:103CDE007D08FB0004300310FB0CFF3E031D722E0B
:103CEE007B080F390A168A153A230A168A157D089B
:103CFE000F390A168A153A230A168A1500300A1643
:103D0E008A153A230A168A1501300A168A153A239D
:103D1E000A168A150800F80078080319972E982EAF
:103D2E00AC2EF31F9B2E9C2EAC2E7009FA0071093F
:103D3E00FB007209FC007309FD00FA0A0319FB0A65
:103D4E000319FC0A0319FD0AB42E7308FD0072084C
:103D5E00FC007108FB007008FA007308720471040D
:103D6E007004031DBB2EBC2EC52E0030F300003098
:103D7E00F2000030F1000030F000452F9630F900CF
:103D8E00D32E0130F90701300310FD0CFC0CFB0C97
:103D9E00FA0CFF3E031DCB2EFE307D05031DD82EE3
:103DAE00D92EC82EF32E0130F9070130FA07003054
:103DBE0003180130FB07003003180130FC070030F8
:103DCE0003180130FD0701300310FD0CFC0CFB0C39
:103DDE00FA0CFF3E031DEB2EFF307D05031DF82E62
:103DEE00F92EDA2E052F0130F9020130F4000310FE
:103DFE00FA0DFB0DFC0DFD0DF40BFE2EFC1B082F1A
:103E0E00092F0F2F0230790203180E2F0F2FFA2EC3
:103E1E007918122F132F1B2FFF30FA05FF30FB05D9
:103E2E007F30FC05FF30FD050310F90C7908F40016
:103E3E00F501F601F70118300310F40DF50DF60D2E
:103E4E00F70DFF3E031D232F7408FA047508FB04BB
:103E5E007608FC047708FD0478080319372F382FED
:103E6E003D2FF31F3B2F3C2F3D2FFD177D08F300F9
:103E7E007C08F2007B08F1007A08F0000800F200DE
:103E8E00721C4A2F4B2F602F831603136108840078
:103E9E008317621C83130130F00064080739013E5A
:103EAE005A2F0310F00DFF3E031D582F700880048B
:103EBE00752F83160313610884008317621C831306
:103ECE000130F00064080739013E6F2F0310F00D2A
:103EDE00FF3E031D6D2F7008FF3A8005F21C782FF0
:103EEE00792F8F2F610884008317621C8313013092
:103EFE00F000640CF100F10C710C0739013E892FB2
:103F0E000310F00DFF3E031D872F70088004A52FB0
:103F1E00610884008317621C83130130F000640C67
:103F2E00F100F10C710C0739013E9F2F0310F00DBB
:103F3E00FF3E031D9D2F7008FF3A8005721DA82FAE
:103F4E00A92FBC2F610884008317621C83130130D4
:103F5E00F00065080739013EB62F0310F00DFF3E45
:103F6E00031DB42F70088004CF2F610884008317BF
:103F7E00621C83130130F00065080739013EC92F1A
:103F8E000310F00DFF3E031DC72F7008FF3A80058A
:103F9E00F21DD22FD32FE92F610884008317621CE4
:103FAE0083130130F000650CF100F10C710C073930
:103FBE00013EE32F0310F00DFF3E031DE12F7008AD
:103FCE008004FF2F610884008317621C8313013065
:103FDE00F000650CF100F10C710C0739013EF92F60
:103FEE000310F00DFF3E031DF72F7008FF3A8005FA
:023FFE000800B9
:04400E00F22FFF3F4F
:00000001FF
