:060000000A128A110C280F
:10000800FE00030EF0000A08F1000A128A11A72E5A
:100018000A128A110F28831603130A128A11A727B6
:100028000A128A11D5000A128A11A8270A128A11FF
:10003800D6000A128A11A9270A128A11D7000A12B1
:100048008A11AA270A128A11D8000A128A11AB2724
:100058000A128A11D9008313A0308400CC300A1206
:100068008A119F270A128A1183120313E101E20100
:10007800E301E401E501E601E701FB0183010A125E
:100088008A1146280A128A1194270A128A11CC303A
:10009800840083160313550883138000840A5608C6
:1000A8008000840A57088000840A58088000840A5F
:1000B80059088000203084004C088000840A4D08CC
:1000C8008000840A4E088000840A4F088000840A51
:1000D800500880000A128A1181220A128A110030FF
:1000E8000A128A113F250A128A1101300A128A114E
:1000F8003F250A128A1108300A128A113F250A126E
:100108008A1100300A128A113F250A128A110B300F
:10011800F8008030F9000A128A11E7250A128A11BC
:100128000C300A128A113F250A128A1100300A126D
:100138008A113F250A128A111430F8008030F9001C
:100148000A128A11E7250A128A110C300A128A113A
:100158003F250A128A1100300A128A113F250A1215
:100168008A113C30F2000030F30083120313670851
:10017800F5006608F4000A128A112D260A128A115F
:10018800730883160313D2007208D1003C30F200C2
:100198000030F300831203136708F5006608F400C3
:1001A8000A128A116F260A128A117308831603131A
:1001B800D4007208D300C63083120313CE00013076
:1001C800CF0083160313520883120313D10083163A
:1001D8000313510883120313D00083160313540822
:1001E80083120313D30083160313530883120313D4
:1001F800D2000A128A114E270A128A11C630F80054
:100208000030F9000A128A11E7250A128A11A92872
:100218000A128A110C28F400741C1329142929299C
:1002280083120313610884008317621C831301304F
:10023800F20064080739013E23290310F20DFF3E3E
:10024800031D2129720880043E29831203136108C3
:1002580084008317621C83130130F2006408073995
:10026800013E38290310F20DFF3E031D362972089E
:10027800FF3A8005F41C4129422958296108840065
:100288008317621C83130130F200640CF300F30C33
:10029800730C0739013E52290310F20DFF3E031D6E
:1002A8005029720880046E29610884008317621C33
:1002B80083130130F200640CF300F30C730C07395C
:1002C800013E68290310F20DFF3E031D66297208DE
:1002D800FF3A8005741D71297229852961088400F7
:1002E8008317621C83130130F20065080739013E49
:1002F8007F290310F20DFF3E031D7D29720880043B
:100308009829610884008317621C83130130F20066
:1003180065080739013E92290310F20DFF3E031DBF
:1003280090297208FF3A8005F41D9B299C29B2295F
:10033800610884008317621C83130130F200650C86
:10034800F300F30C730C0739013EAC290310F20DCE
:10035800FF3E031DAA2972088004C8296108840089
:100368008317621C83130130F200650CF300F30C51
:10037800730C0739013EC2290310F20DFF3E031D1D
:10038800C0297208FF3A80050800831203133F084A
:1003980084008313000884000A128A110A270A12AB
:1003A8008A11253A031DD929DA29672A3F088400CA
:1003B8000130800783160313A001A1010030FB0060
:1003C800FF30A200FF30A30083120313C701022AE3
:1003D800FB143F08840001308007022A0130C7005F
:1003E800022A3F088400000884000A128A110A279A
:1003F8000A128A11303A0319EC29F229470803191D
:10040800062A072AF5293F08F8004008F9000A12C9
:100418008A11E8240A128A11790883160313A100A5
:100428007808A000A11F192A1A2A202A7B14A009DB
:10043800A109A00A0319A10A831203133F08840023
:1004480083130008C800480884000A128A110A2782
:100458000A128A11753A031D322A332A5F2A400884
:1004680084000008C10002308007410884000008A9
:10047800C300840A0008C4003F0884004808013EFD
:100488008000542A3D08B4003E08B5004408B7006F
:100498004308B6000A128A1162240A128A11802AB5
:1004A800480884000A128A110A270A128A11753A22
:1004B8000319462A5F2A831203133F088400013078
:1004C80083138007802A3F088400000884000A12EA
:1004D8008A110A270A128A11C100C2014108F200D2
:1004E8004208F3003D08F4003E08F5000A128A119C
:1004F8002E230A128A115F2A0800613084008312B1
:100508000313200883138000840A21088000840ACA
:1005180022088000840A23088000840A24088000B6
:1005280000306206031D9A2A05306106031D9D2AC4
:100538009E2AA22A831603138501BD2A003062066B
:10054800031DA82A06306106031DAB2AAC2AB02A6F
:10055800831603138601BD2A00306206031DB62ADE
:1005680007306106031DB92ABA2A2D2B83160313F7
:1005780087013430F900F130F800F80BC12AF90B83
:10058800C12AC62A03300A128A113F250A128A1183
:100598000D30F900FB30F800F80BD02AF90BD02AFF
:1005A800D52A03300A128A113F250A128A112A30E5
:1005B800F9008D30F800F80BDF2AF90BDF2AE42A5E
:1005C80003300A128A113F250A128A1102300A12D0
:1005D8008A113F250A128A1102300A128A113F2510
:1005E8000A128A1108300A128A113F250A128A1142
:1005F80000300A128A113F250A128A1106300A129F
:100608008A113F250A128A110830FA007A157A08E9
:10061800F80004300310F80CFF3E031D0E2B780879
:100628000F390A128A113F250A128A117A080F39DE
:100638000A128A113F250A128A1100300A128A11F9
:100648003F250A128A1101300A128A113F250A121F
:100658008A110800740875040319332B342B3A2BBC
:1006680074087504031D392B3A2B412B72080A12A2
:100678008A11AC270A128A11CD2B7408093E8312FD
:100688000313A00075080318013E003EA1002008CE
:1006980084008317211C83130008A200840A000821
:1006A800A3002208230403195A2B5B2B8D2B7408F3
:1006B800093EA00075080318013E003EA10020086D
:1006C80084008317211C83130008A200840A0008F1
:1006D800A3007408023EA40075080318013E003EFA
:1006E800A500240884008317251C83130008A6008E
:1006F800840A0008A7002708803AA8002308803A3F
:100708002802031D892B2208260203188C2B8D2B07
:10071800CD2B740884008317751C8313000883127B
:100728000313A000840A0008A1007408023EA20076
:1007380075080318013E003EA300220884008317B1
:10074800231C831300082007A5002108A400031810
:10075800A40A801FB02BA403831203132408A60045
:10076800250884008317261C8313720880007408E8
:10077800023EA00075080318013E003EA1002008B3
:1007880084008317211C831301308007840A03180F
:10079800800A0800F7008312031361088400831796
:1007A800621C83130130F50063080739013EDE2B14
:1007B8000310F50DFF3E031DDC2B75088004770838
:1007C800F50004300310F50CFF3E031DE62B7508F9
:1007D8000F390A128A110F210A128A118312031380
:1007E800610884008317621C83130130F500630CD1
:1007F800F600F60C760C0739013E042C0310F50DB3
:10080800FF3E031D022C750880041A30F500F50B15
:100818000B2C000083120313610884008317621CE9
:1008280083130130F500630CF600F60C760C0739DB
:10083800013E202C0310F50DFF3E031D1E2C7508EC
:10084800FF3A800577080F390A128A110F210A1218
:100858008A1183120313610884008317621C8313AF
:100868000130F500630CF600F60C760C0739013EF2
:100878003F2C0310F50DFF3E031D3D2C7508800429
:100888001A30F500F50B462C00008312031361089B
:1008980084008317621C83130130F500630CF60093
:1008A800F60C760C0739013E5B2C0310F50DFF3E64
:1008B800031D592C7508FF3A800508000130831282
:1008C8000313B80083160313210883120313BA0015
:1008D80083160313200883120313B9001F30BB00CB
:1008E8000030BC0083160313C501B22CFF308312FD
:1008F8000313BB070318BC0AFF30BC073B08A63E1E
:1009080084000A30F2000030F3003708F50036089A
:10091800F4000A128A116F260A128A117208303EF0
:100928008313800083120313B801FF30B90703183B
:10093800BA0AFF30BA070A30F2000030F30037086D
:10094800F5003608F4000A128A112D260A128A11B7
:10095800730883120313B7007208B60083123B08AA
:100968003C040319B82CB92CD52C36083704031DC0
:10097800BE2CBF2C7A2C3808031DC32CC42C7A2C0F
:100988003A08803AFF0080307F02031DCD2C0130E9
:100998003902031CD02CD12CD52CFB18D42CD52CE7
:1009A8007A2C831203133408AC003508AD003B08D9
:1009B800A63EAE003A08B0003908AF000A128A1104
:1009C80094250A128A11080083120313A101A201B7
:1009D800780884008313000884000A128A110A2701
:1009E8000A128A112A3A031DFA2CFB2C292D7808A1
:1009F800840001308007790884000008FA0002307A
:100A080080077A0884000008A100840A0008A20070
:100A18003A2D2208F3002108F2000A30F4000030D1
:100A2800F5000A128A1129270A128A118312031360
:100A380020087207A1000030031801307307A200D4
:100A48007808840001308313800778088400000840
:100A580084000A128A110A270A128A11D03EA000BD
:100A68000A302002031C392D3A2D0D2D2208F900D9
:100A78002108F8000800F7008312031361088400B6
:100A88008317621C83130130F50063080739013EA0
:100A98004F2D0310F50DFF3E031D4D2D7508FF3A30
:100AA800800577080A128A110F210A128A11831207
:100AB8000313610884008317621C83130130F50057
:100AC800630CF600F60C760C0739013E6D2D031009
:100AD800F50DFF3E031D6B2D750880040B30F600E5
:100AE8006230F500F50B762DF60B762D000083129B
:100AF8000313610884008317621C83130130F50017
:100B0800630CF600F60C760C0739013E8D2D0310A8
:100B1800F50DFF3E031D8B2D7508FF3A8005080073
:100B28007B1C972D982DA52D831203132E08F600F4
:100B38002C08F7002D08F8000A128A11D4260A1288
:100B48008A1183120313B01FAA2DAB2DAD2DAF014F
:100B5800B001B201B301C72D2030F2000030F3001C
:100B6800831203132C08F4002D08F5000A128A11C9
:100B78002E230A128A11013083120313B2070318B5
:100B8800B30A0030B3073308803AB1003008803A1E
:100B98003102031DD12D2F083202031CD42DD52D6F
:100BA800B02D7B18D82DD92DE62D831203132E08CE
:100BB800F6002C08F7002D08F8000A128A11D4262E
:100BC8000A128A11080083120313A301A401102E2C
:100BD80023087807A1007908A0000318A00AA31F1A
:100BE800F62DA003831203132008A2002208FF0099
:100BF800210884000A128A1100270A128A110A128F
:100C08008A11CE230A128A11013083120313A30713
:100C18000318A40A0030A40723087807A10079085C
:100C2800A0000318A00AA31F1A2EA00383120313FF
:100C38002008A2002208FF00210884000A128A1155
:100C480000270A128A11003A031D2B2E2C2EEC2D98
:100C58000800F701F801720873040319342E352EC1
:100C68006A2E0130F600412E01300310F20DF30D0B
:100C7800FF3E031D392E0130F607F31F442E452E83
:100C8800382E01300310F70DF80DFF3E031D462ED8
:100C980073087502031D522E72087402031C552E28
:100CA800562E5D2E7208F4027308031CF503F50234
:100CB800771401300310F30CF20CFF3E031D5E2E77
:100CC8000130F602031D692E6A2E452E7808F300BE
:100CD8007708F2000800720873040319742E752E41
:100CE800A22E0130F600812E01300310F20DF30D13
:100CF800FF3E031D792E0130F607F31F842E852E43
:100D0800782E73087502031D8B2E72087402031C5B
:100D18008E2E8F2E952E7208F4027308031CF5038D
:100D2800F50201300310F30CF20CFF3E031D962E62
:100D38000130F602031DA12EA22E852E7508F300A0
:100D48007408F20008000B1DAA2EAB2ECD2E013020
:100D580083160313A4070318A50A0030A50700305B
:100D68002502653003192402031CBB2EBC2EC82E95
:100D7800013083120313E6070318E70A0030E70778
:100D880083160313A401A501B23083120313810053
:100D98000B1171088A00700E8300FE0E7E0E09008A
:100DA80083120313AA01AB01F12E2908F900FA01F5
:100DB8007908F2007A08F3007708F4007808F5005B
:100DC8000A128A112E230A128A1101308312031380
:100DD800AA070318AB0A0030AB072A087607F90000
:100DE8007908840083130008A9002908031DFD2E33
:060DF800FE2ED92E0800BA
:100E0000FF1B0A2F83137F1883170008840A031916
:100E1000FF0A080007308A000408840A82070034A9
:100E200025343034323475343A3425343034323465
:100E3000753400345434693465346D3470346F342F
:100E40003A3420340034303430343A3430343034AE
:100E50000034F601F701721C2E2F2F2F352F740846
:100E6000F6070318F70A7508F70701300310F40DA9
:100E7000F50DFF3E031D362F01300310F30CF20C6D
:100E8000FF3E031D3D2F72087304031D482F492F99
:100E90002B2F7708F3007608F200080050308312F9
:100EA0000313D5004E08D6000030D700D801D90171
:100EB000DF01E0015630C9000030CA004F08CB0006
:100EC0005530CC000A128A1171270A128A11831236
:100ED000031358084E07D40054088400831380017C
:100EE0000800831203134B08CD00832F4908BD006F
:100EF0004A08BE004D30BF004C08C0000A128A11DB
:100F0000C9210A128A11831203134D0884000A12A0
:100F10008A110A270A128A11003A031D902F912F75
:100F2000762FC901CA010800073083160313810018
:100F3000B2308312031381008B168B1708006400F4
:100F40008001840A0406031900340406A02F073424
:0A0F500000341A342C343E3408003B
:04400E00F12FFF3F50
:00000001FF
