:060000000A128A11FC2F18
:100D7E000330831603178800890101308312031391
:100D8E009F008030831603139F0008008316031301
:100D9E00871007117C3092000C30831203139700DA
:100DAE000C309D00053092000800F300C330831212
:100DBE0003139F057308F20001300310F20DFF3E7E
:100DCE00031DE42E0310720D9F043130F200F20B5E
:100DDE00EE2EF12E831203139F149F18F72EF82E6A
:100DEE00F42E1E08F100831603131E08F0000800EF
:100DFE007108F3007008F2000310F30CF20C0310EC
:100E0E00F30CF20C72088312031395007108F300B1
:100E1E007008F2000310F30CF20C72080139F400A2
:100E2E00F40EF40D17087406DF3974069700700877
:100E3E000139F200F20E17087206EF3972069700AA
:100E4E0008007108F3007008F2000310F30CF20CA6
:100E5E000310F30CF20C7208831203139B0071083B
:100E6E00F3007008F2000310F30CF20C7208013953
:100E7E00F400F40EF40D1D087406DF3974069D009F
:100E8E0070080139F200F20E1D087206EF39720673
:100E9E009D00080000307102CD3003197002031856
:100EAE00592F5A2F5D2FF001F1018B2F0130710256
:100EBE009A30031970020318652F662F6B2F7D3041
:100ECE00F0000030F1008B2F0230710267300319F1
:100EDE0070020318732F742F792FFA30F000003040
:100EEE00F1008B2F03307102333003197002031897
:100EFE00812F822F872F7730F0000130F1008B2F5A
:100F0E00F430F0000130F1000800FF3083160313B7
:100F1E0085000A128A11BF260A128A110A128A1134
:100F2E00CD260A128A1100300A128A11DC260A1204
:100F3E008A11710883120313A1007008A0001430E7
:100F4E00F6007930F500F50BAA2FF60BAA2FAF2F6E
:100F5E0001300A128A11DC260A128A1171088312D4
:100F6E000313A3007008A2001430F6007930F500C8
:100F7E00F50BBF2FF60BBF2FC42F831203132108BF
:100F8E00F1002008F0000A128A1151270A128A1164
:100F9E00710883120313A5007008A4002308F10042
:100FAE002208F0000A128A1151270A128A117108BA
:100FBE0083120313A7007008A6002508F100240869
:100FCE00F0000A128A11FF260A128A1183120313E5
:100FDE002708F1002608F0000A128A1128270A12A3
:100FEE008A119A2F0A128A11002883010A128A1175
:020FFE008C2F36
:04400E00F12FFF3F50
:00000001FF
