:100000000A128A11FC2F00308A000408840A820731
:1000100000343F3406345B344F3466346D347D3401
:0600200007347F346F3449
:100FA000831603138801831203138801F301730866
:100FB000013E84000A128A1103200A128A11831248
:100FC000031388000B30F2002630F1005D30F00092
:100FD000F00BE82FF10BE82FF20BE82FEF2F013089
:100FE000F3070A307302031CF62FF72FD72FF301F4
:100FF000D72F0A128A11002883010A128A11D02FD2
:04400E00F12FFF3F50
:00000001FF
