:060000000A128A110C280F
:10000800FE00030EF0000A08F1000A128A15302ECD
:100018000A128A110F28831603130A128A151A2640
:100028000A128A11E2000A128A151B260A128A117C
:10003800E3000A128A151C260A128A11E4000A1221
:100048008A151D260A128A11E5000A128A151E262B
:100058000A128A11E6008313A0308400C1300A1204
:100068008A151F260A128A11643084006D300A121C
:100078008A151F260A128A11FB0183010A128A11A6
:1000880045280A128A11F0270A128A110A128A15BB
:1000980027260A128A11D1308400831603136208B6
:1000A80083138000840A63088000840A640880003F
:1000B800840A65088000840A66088000203084006D
:1000C80051088000840A52088000840A530880007E
:1000D800840A54088000840A550880000A128A118C
:1000E800D8230A128A110A128A1547260A128A1177
:1000F800730883160313E1007208E00000300A1247
:100108008A11F4260A128A1101300A128A11F42679
:100118000A128A11063083120313E2002F30E1001D
:10012800E10B9428E20B94289928831603132008DE
:10013800031D9F28A028822908300A128A11F42654
:100148000A128A1100300A128A11F4260A128A1138
:100158000D30F8008030F9000A128A156E270A124D
:100168008A11003083120313A7000030A600033061
:10017800A500FF30A400831603136008F20061088D
:10018800F300F401F5010030F9000030F800C33045
:10019800F7005030F6000A128A15B4270A128A119D
:1001A800750883120313AB007408AA007308A9002A
:1001B8007208A8000A128A1137260A128A118312B5
:1001C8000313270883160313DF008312031326087B
:1001D80083160313DE008312031325088316031303
:1001E800DD0083120313240883160313DC00003098
:1001F80083120313A7000030A6002730A500103093
:10020800A400831603135F0883120313AB0083163D
:1002180003135E0883120313AA00831603135D08F1
:1002280083120313A900831603135C0883120313B4
:10023800A8000A128A1137260A128A118312031398
:10024800250883160313D700831203132408831683
:100258000313D6000030F5000030F4002730F30017
:100268001030F2005F08F9005E08F8005D08F7003A
:100278005C08F6000A128A1149270A128A117308C3
:1002880083160313D9007208D800C13083120313F0
:10029800CE001630CF0083160313570883120313BA
:1002A800D10083160313560883120313D000831654
:1002B8000313590883120313D30083160313580832
:1002C80083120313D2000A128A1581260A128A1190
:1002D80008300A128A11F4260A128A1109300A1201
:1002E8008A11F4260A128A11C130F8000030F90088
:1002F8000A128A156E270A128A11392A2003031D49
:1003080086298729FA2908300A128A11F4260A123E
:100318008A1100300A128A11F4260A128A11013051
:10032800F8008030F9000A128A156E270A128A111D
:10033800003083120313A7000030A6000330A50085
:10034800FF30A400831603136008F2006108F3006D
:10035800F401F5010030F9000030F8000030F70032
:100368006430F6000A128A15B4270A128A11750831
:1003780083120313AB007408AA007308A90072085B
:10038800A8000A128A1137260A128A118312031347
:10039800250883160313DB0083120313240883162E
:1003A8000313DA00C13083120313CE001E30CF00CE
:1003B800831603135B0883120313D10083160313F8
:1003C8005A0883120313D0000A128A1581260A12CA
:1003D8008A110C300A128A11F4260A128A11003086
:1003E8000A128A11F4260A128A1178290230200684
:1003F800031DFF29002A392A08300A128A11F42617
:100408000A128A1100300A128A11F4260A128A1175
:100418002330F8008030F9000A128A156E270A1274
:100428008A11C13083120313CE002830CF008316FF
:100438000313610883120313D100831603136008A2
:1004480083120313D0000A128A1581260A128A1110
:100458000C300A128A11F4260A128A1100300A1284
:100468008A11F4260A128A11782903308312031399
:10047800E3000830E2007630E100E10B412AE20BAC
:10048800412AE30B412A000077280A128A110C2816
:10049800831203133F0884008313000884000A12A0
:1004A8008A150A200A128A11253A031D5C2A5D2A38
:1004B800042B3F08840001308007E901EA0100307D
:1004C800FB00FF30EB00FF30EC00C701812AFB1472
:1004D8003F08840001308007812A0130C700812A43
:1004E8003F088400000884000A128A150A200A12AC
:1004F8008A11303A03196B2A712A47080319852A89
:10050800862A742A3F08F8004008F9000A128A115E
:100518009D260A128A11790883120313EA007808C3
:10052800E900EA1F982A992A9F2A7B14E909EA090F
:10053800E90A0319EA0A3F08840083130008C8007F
:10054800480884000A128A150A200A128A11753A84
:10055800031DAF2AB02ADC2A400884000008C10025
:1005680002308007410884000008C300840A00089C
:10057800C4003F0884004808013E8000D12A3D0895
:10058800B4003E08B5004408B7004308B6000A1294
:100598008A11B9250A128A111D2B480884000A12EB
:1005A8008A150A200A128A11753A0319C32ADC2A05
:1005B8003F088400000884000A128A150A200A12DB
:1005C8008A11253A031DE92AEA2AFC2A3F088400F1
:1005D800013080072530F2000030F3003D08F400B8
:1005E8003E08F5000A128A1185240A128A111D2B69
:1005F800831203133F0884000130831380071D2BE7
:100608003F088400000884000A128A150A200A128A
:100618008A11C100C2014108F2004208F3003D08F6
:10062800F4003E08F5000A128A1185240A128A117C
:10063800FC2A0800F400741C222B232B382B83126D
:100648000313640884008317651C83130130F200C8
:1006580067080739013E322B0310F20DFF3E031DD8
:10066800302B720880044D2B831203136408840016
:100678008317651C83130130F20067080739013EB0
:10068800472B0310F20DFF3E031D452B7208FF3A5E
:100698008005F41C502B512B672B640884008317AA
:1006A800651C83130130F200670CF300F30C730C24
:1006B8000739013E612B0310F20DFF3E031D5F2B2E
:1006C800720880047D2B640884008317651C8313DB
:1006D8000130F200670CF300F30C730C0739013E8C
:1006E800772B0310F20DFF3E031D752B7208FF3A9E
:1006F8008005741D802B812B942B6408840083173C
:10070800651C83130130F20068080739013E8E2BFF
:100718000310F20DFF3E031D8C2B72088004A72BDB
:10072800640884008317651C83130130F20068088D
:100738000739013EA12B0310F20DFF3E031D9F2B2D
:100748007208FF3A8005F41DAA2BAB2BC12B640855
:1007580084008317651C83130130F200680CF300D2
:10076800F30C730C0739013EBB2B0310F20DFF3E4F
:10077800031DB92B72088004D72B640884008317E3
:10078800651C83130130F200680CF300F30C730C42
:100798000739013ED12B0310F20DFF3E031DCF2B6D
:1007A8007208FF3A8005080064308400831203133E
:1007B800200883138000840A21088000840A220804
:1007C8008000840A23088000840A240880000030FE
:1007D8006506031DF12B05306406031DF42BF52B6C
:1007E800F92B831603138501142C00306506031DAD
:1007F800FF2B06306406031D022C032C072C8316DE
:1008080003138601142C00306506031D0D2C0730D8
:100818006406031D102C112C842C831603138701E6
:100828003430F900F130F800F80B182CF90B182CBB
:100838001D2C03300A128A11F4260A128A110D306F
:10084800F900FB30F800F80B272CF90B272C2C2C7F
:1008580003300A128A11F4260A128A112A30F90082
:100868008D30F800F80B362CF90B362C3B2C033066
:100878000A128A11F4260A128A1102300A128A11FF
:10088800F4260A128A1102300A128A11F4260A1270
:100898008A1108300A128A11F4260A128A110030C5
:1008A8000A128A11F4260A128A1106300A128A11CB
:1008B800F4260A128A110830FA007A157A08F80024
:1008C80004300310F80CFF3E031D652C78080F391F
:1008D8000A128A11F4260A128A117A080F390A12A2
:1008E8008A11F4260A128A1100300A128A11F42693
:1008F8000A128A1101300A128A11F4260A128A1180
:1009080008007408750403198A2C8B2C912C740820
:100918007504031D902C912C982C72080A128A11C8
:10092800FE270A128A11242D7408093E8312031324
:10093800A00075080318013E003EA10020088400AD
:100948008317211C83130008A200840A0008A3004F
:10095800220823040319B12CB22CE42C7408093E94
:10096800A00075080318013E003EA100200884007D
:100978008317211C83130008A200840A0008A3001F
:100988007408023EA40075080318013E003EA50045
:10099800240884008317251C83130008A600840AF2
:1009A8000008A7002708803AA8002308803A2802F0
:1009B800031DE02C220826020318E32CE42C242D26
:1009C800740884008317751C8313000883120313AB
:1009D800A000840A0008A1007408023EA20075085D
:1009E8000318013E003EA300220884008317231C3D
:1009F800831300082007A5002108A4000318A40AEF
:100A0800801F072DA403831203132408A6002508BA
:100A180084008317261C8313720880007408023E22
:100A2800A00075080318013E003EA10020088400BC
:100A38008317211C831301308007840A0318800A56
:100A48000800F70083120313640884008317651CE9
:100A580083130130F50066080739013E352D031070
:100A6800F50DFF3E031D332D750880047708F5004A
:100A780004300310F50CFF3E031D3D2D75080F399A
:100A88000A128A111E230A128A1183120313640898
:100A980084008317651C83130130F500660CF6008B
:100AA800F60C760C0739013E5B2D0310F50DFF3E61
:100AB800031D592D750880041A30F500F50B622DB9
:100AC800000083120313640884008317651C8313D2
:100AD8000130F500660CF600F60C760C0739013E7D
:100AE800772D0310F50DFF3E031D752D7508FF3A90
:100AF800800577080F390A128A111E230A128A11F3
:100B080083120313640884008317651C8313013060
:100B1800F500660CF600F60C760C0739013E962DAA
:100B28000310F50DFF3E031D942D750880041A303F
:100B3800F500F50B9D2D0000831203136408840053
:100B48008317651C83130130F500660CF600F60C5C
:100B5800760C0739013EB22D0310F50DFF3E031D3B
:100B6800B02D7508FF3A8005080001308312031381
:100B7800B8006A08BA006908B9001F30BB00003025
:100B8800BC0083160313C001012EFF308312031328
:100B9800BB070318BC0AFF30BC073B08A13E840012
:100BA8000A30F2000030F3003708F5003608F40088
:100BB8000A128A15F4260A128A117208303E831323
:100BC800800083120313B801FF30B9070318BA0A6B
:100BD800FF30BA070A30F2000030F3003708F5009A
:100BE8003608F4000A128A152C270A128A1173088B
:100BF80083120313B7007208B60083123B083C0443
:100C08000319072E082E242E36083704031D0D2E2F
:100C18000E2EC92D3808031D122E132EC92D3A0881
:100C2800803AFF0080307F02031D1C2E01303902FC
:100C3800031C1F2E202E242EFB18232E242EC92DF4
:100C4800831203133408AC003508AD003B08A13EFD
:100C5800AE003A08B0003908AF000A128A119D2781
:100C68000A128A110800003083120313B000003002
:100C7800AF000030AE000030AD0027082604250480
:100C880024040319482E492E942E0130B100572E02
:100C98000130AC000310A40DA50DA60DA70DAC0BDB
:100CA8004E2E0130B107A71F5A2E5B2E4C2E013055
:100CB800AC000310AD0DAE0DAF0DB00DAC0B5D2E3D
:100CC80027082B02031D722E26082A02031D722EE6
:100CD80025082902031D722E24082802031C752EDC
:100CE800762E852E2408A8022508031C250FA902A4
:100CF8002608031C260FAA022708031C270FAB028D
:100D08002D1401300310A70CA60CA50CA40CFF3E53
:100D1800031D862E0130B102031D932E942E5B2EE7
:100D28003008A7002F08A6002E08A5002D08A4004B
:100D3800080083120313A101A20178088400831319
:100D4800000884000A128A150A200A128A112A3A0F
:100D5800031DAF2EB02EDE2E7808840001308007E8
:100D6800790884000008FA00023080077A088400B5
:100D78000008A100840A0008A200EF2E2208F30050
:100D88002108F2000A30F4000030F5000A128A1532
:100D9800A4260A128A118312031320087207A100DD
:100DA8000030031801307307A2007808840001306E
:100DB8008313800778088400000884000A128A15C3
:100DC8000A200A128A11D03EA0000A302002031C11
:100DD800EE2EEF2EC22E2208F9002108F800080096
:100DE800F70083120313640884008317651C8313B8
:100DF8000130F50066080739013E042F0310F50D90
:100E0800FF3E031D022F7508FF3A800577080A1276
:100E18008A111E230A128A1183120313640884009C
:100E28008317651C83130130F500660CF600F60C79
:100E3800760C0739013E222F0310F50DFF3E031DE6
:100E4800202F750880040B30F6006230F500F50B92
:100E58002B2FF60B2B2F000083120313640884003A
:100E68008317651C83130130F500660CF600F60C39
:100E7800760C0739013E422F0310F50DFF3E031D86
:100E8800402F7508FF3A800508007508740473043C
:100E980072040319502F512F942F0130831203131A
:100EA800A000612F0130FA000310F20DF30DF40DCC
:100EB800F50DFA0B582F0130A007F51F642F652F89
:100EC800562F75087902031D732F74087802031DC5
:100ED800732F73087702031D732F72087602031CA1
:100EE800762F772F852F7208F6027308031C730F6D
:100EF800F7027408031C740FF8027508031C750FB9
:100F0800F90201300310F50CF40CF30CF20CFF3E5F
:100F1800031D862F0130A002031D932F942F652FE8
:100F28007908F5007808F4007708F3007608F200ED
:100F380008007B1CA02FA12FAE2F831203132E08AD
:100F4800F6002C08F7002D08F8000A128A15C926A1
:100F58000A128A1183120313B01FB32FB42FB62FAE
:100F6800AF01B001B201B301D02F2030F200003040
:100F7800F300831203132C08F4002D08F5000A125D
:100F88008A1185240A128A11013083120313B207C9
:100F98000318B30A0030B3073308803AB1003008A9
:100FA800803A3102031DDA2F2F083202031CDD2F8D
:100FB800DE2FB92F7B18E12FE22FEF2F83120313B7
:100FC8002E08F6002C08F7002D08F8000A128A15DA
:100FD800C9260A128A1108000130831603178800EF
:100FE80089018130831203139F0080308316031315
:060FF8009F000800080044
:10100000FF1B0A2883137F1883170008840A03191B
:10101000FF0A080008308A000408840A82070034A6
:1010200050346F347234633465346E3474346134E4
:101030006A3465343A34003456346F346C34743462
:1010400061346A3465343A340034253475342E34CE
:101050002534303434347534003425347534253433
:10106000253400344134443443343A340034253494
:04107000753400349F
:101C3400073400341A342C343E3464008001840A9E
:101C44000406031900340406202E83160313061415
:101C5400811301138B100B168B1708008B1C332E6A
:101C6400342E402E013083160313A00703302002C4
:101C7400031C3D2E3E2E3F2EA0018B1071088A00BE
:101C8400700E8300FE0E7E0E09000D30F500FB3051
:101C9400F400F40B4B2EF50B4B2E502E8312031332
:101CA4009F149F18562E572E532E1E08F30083168A
:101CB40003131E08F2000800831203134B08CD001F
:101CC400702E4908BD004A08BE004D30BF004C08C4
:101CD400C0000A128A114C220A128A1583120313B5
:101CE4004D0884000A128A150A200A128A15003A3D
:101CF400031D7D2E7E2E632EC901CA0108005030BB
:101D040083120313D5004E08D6000030D700D80143
:101D1400D901DF01E0015630C9000030CA004F0884
:101D2400CB005530CC000A128A155E260A128A1599
:101D34008312031358084E07D400540884008313F5
:101D440080010800F601F701721CA92EAA2EB02EFC
:101D54007408F6070318F70A7508F707013003102B
:101D6400F40DF50DFF3E031DB12E01300310F30CED
:101D7400F20CFF3E031DB82E72087304031DC32E1C
:101D8400C42EA62E7708F3007608F200080083120A
:101D94000313AA01AB01E62E2908F900FA01790818
:101DA400F2007A08F3007708F4007808F5000A12C4
:101DB4008A1185240A128A15013083120313AA0793
:101DC4000318AB0A0030AB072A087607F900790834
:101DD400840083130008A9002908031DF22EF32EA2
:101DE400CE2E0800720873040319F92EFA2E272F39
:101DF4000130F600062F01300310F20DF30DFF3E03
:101E0400031DFE2E0130F607F31F092F0A2FFD2EA6
:101E140073087502031D102F72087402031C132F1C
:101E2400142F1A2F7208F4027308031CF503F50229
:101E340001300310F30CF20CFF3E031D1B2F013085
:101E4400F602031D262F272F0A2F7508F3007408A6
:101E5400F2000800F601F701720873040319332F26
:101E6400342F692F0130F800402F01300310F20D98
:101E7400F30DFF3E031D382F0130F807F31F432FE6
:101E8400442F372F01300310F60DF70DFF3E031DCD
:101E9400452F73087502031D512F72087402031C29
:101EA400542F552F5C2F7208F4027308031CF5039A
:101EB400F502761401300310F30CF20CFF3E031DFF
:101EC4005D2F0130F802031D682F692F442F770816
:101ED400F3007608F200080083120313A301A4019F
:101EE400972F23087807A1007908A0000318A00AF7
:101EF400A31F7D2FA003831203132008A20022082E
:101F0400FF00210884000A128A1500200A128A158B
:101F14000A128A1125250A128A1501308312031325
:101F2400A3070318A40A0030A40723087807A10014
:101F34007908A0000318A00AA31FA12FA0038312ED
:101F440003132008A2002208FF00210884000A12BB
:101F54008A1500200A128A15003A031DB22FB32FE6
:101F6400732F0800003083120313A3000030A20073
:101F74000030A1000030A000721CC12FC22FDB2F43
:101F8400760883120313A007770803110318013E90
:101F94000319CD2FA107780803110318013E031973
:101FA400D42FA207790803110318013E0319DB2F6C
:101FB400A3070130FA000310F60DF70DF80DF90D23
:101FC400FA0BDD2F01300310F50CF40CF30CF20CBA
:101FD400FF3E031DE52F7508740473047204031D8A
:101FE400F42FF52FBE2F831203132308F5002208C4
:0C1FF400F4002108F3002008F2000800AF
:04400E00F12FFF3F50
:00000001FF
