:100000000A128A11FC2F00308A000408840A820731
:10001000003400344234423442347E344234423478
:100020003C3400347C34423442347C3442344234F4
:100030007C3400343C344234403440344034423424
:100040003C3400347834443442344234423444340E
:10005000783400347E34403440347C34403440348E
:100060007E3400344034403440347C3440344034B6
:100070007E3400343C34423442344E3440344234D2
:100080003C3400344234423442347E3442344234CC
:10009000423400347E341834183418341834183488
:1000A0007E34003438344434443404340434043466
:1000B0001E340034423444344834703448344434B8
:1000C000423400347E344034403440344034403490
:1000D000403400344234423442345A345A34663460
:1000E000423400344234423446344A345234623466
:1000F000423400343C344234423442344234423498
:100100003C3400344034403440347C344234423453
:100110007C3400343A3444344A3442344234423435
:100120003C3400344234443448347C344234423425
:100130007C3400343C34423402343C344034423465
:100140003C34003418341834183418341834183443
:100150007E3400343C3442344234423442344234FB
:100160004234003418342434423442344234423469
:1001700042340034423466345A345A3442344234BD
:10018000423442344234243418341834243442344F
:1001900042340034183418341834183424344234B7
:1001A000423400347E344034203418340434023471
:0201B0007E349B
:100F50008316031386018801831203138801860117
:100F6000F301F201F40108307402031CB82FB92F09
:100F7000BA2FE82F0130F000740AC02F0310F00DD3
:100F8000FF3E031DBE2F70088312031386007308F3
:100F9000F00003300310F00DFF3E031DCA2F013097
:100FA0007007F1007408710784000A128A11032087
:100FB0000A128A11FF3A88000430F100E430F00090
:100FC000F00BE02FF10BE02F00000130F407B32FFE
:100FD0000130F2073C307202031CEF2FF02FB22FCA
:100FE0000130F3071A307302031CF72FF82FB12FCB
:100FF000B02F0A128A11002883010A128A11A82F21
:04400E00F12FFF3F50
:00000001FF
